:02000002B0004C
:1040000000400B00A49A0B00000006000C00050203
:084010000401E60C00000000B1
:044018008C910B007C
:1040200009480A49884208B505D0094A824202D0A7
:10403000121A03F04FF80748074A0021121A03F03A
:1040400071F8014808BD00BF94E4032098980B0064
:1040500078E6032078E60320EDE7032070B5074EED
:10406000074C02F0DDFAA41BA4080025AC4200D1E5
:1040700070BD56F8043B98470135F7E74C980B00A4
:1040800070980B0000F04CB808B500F0FDF8BDE8E2
:10409000084002F07DBA00F061BB00F05FBB00F0A9
:1040A00065BB000008B5034A03490C2000F0AAFADA
:1040B000FEE700BF95440B00A0910B000078B0FA1A
:1040C00080F0400970470123037070477047006A11
:1040D0000368DB68184700000A4B10B5044603600C
:1040E00000F0A8FF214601F0E0F902F0CBF902F060
:1040F000BDF92046044B40F8043B01F071F820461E
:1041000010BD00BF40920B0028920B0010B5044672
:10411000FFF7E2FF20462421FFF7C1FF204610BD34
:1041200008B502F0CBFA00224FF4165102F03AF92A
:1041300002F0C4FA632102F03FF902F0BFFA0A214B
:1041400002F03AF902F09EF9BDE808404FF416512A
:1041500002F088B9F0B595B043490CA802F013F805
:1041600010AC0E9B8BB902F0A9FA0A220146204638
:1041700001F0A6FF21460CA802F05BF8204601F0F2
:10418000B7FF642000F032FBEBE73849204601F02E
:10419000FAFF21460CA802F08EF80546204601F0F1
:1041A000A7FF002D5AD00AAE08AF05AB06AA3049CA
:1041B0000C9802940196009700F0E8FA02F062F978
:1041C0002C4901F029FE02F05DF9054606A802F02F
:1041D00075FF0321284601F023FF02F053F905A9DA
:1041E00001F02DFE02F04EF9234901F015FE02F018
:1041F00049F90546384602F061FF0321284601F0DF
:104200000FFF02F03FF905A901F019FE02F03AF99B
:104210001A4901F001FE02F035F90546304602F078
:104220004DFF0321284601F0FBFE02F02BF905A902
:1042300001F005FE02F026F9114901F0EDFD02F052
:1042400021F90546204602F039FF0321284601F0F6
:10425000E7FE02F017F90B4901F0F1FD0CA801F09F
:1042600047FF15B0F0BD00BF06930B00B5910B00E2
:10427000B9910B0004920B00E9910B00FE910B0029
:1042800013920B0019920B0008B5FFF763FFBDE80E
:10429000084040F6B83000F0A9BA70B5D0E9005334
:1042A0001426044606FB0356AE4204D0284601F00D
:1042B0001FFF1435F8E7206800F058FA204670BD5B
:1042C0008842F8B504460D46164616D9904215D2D6
:1042D000A2F11406751AA1F114072C44B7421CD0A0
:1042E0002CB13146204601F07FFF337C23743046E9
:1042F00001F0FEFE143E143CF0E70ED0B5420CD0A7
:104300002CB12946204601F06FFF2B7C23742846F0
:1043100001F0EEFE14351434F0E7F8BD2DE9F0415C
:104320000023C0E9003383604F689F4204460E4675
:1043300023DD4FF0140808FB07F000F00FFA0546E4
:10434000D8B1D4E9001208FB0212FFF7B9FF2068C8
:1043500000F00CFA2560A760D6E9007308FB03782B
:10436000B84508D03946284601F058FF3B7C2B74ED
:1043700014371435F4E7736863602046BDE8F081B4
:1043800070B5264B264A9A6000248CB0C3E90044DD
:10439000022000F04FF92146012000F05BF90121D5
:1043A000042000F067F8CDE90044029402F06AF8B6
:1043B0001C4C0546694603A8FFF7B0FF264603A933
:1043C00006A8FFF7ABFF184B46F8043B06A909A85F
:1043D000FFF7A4FF09AA1E21304601F049F909A8F8
:1043E000FFF75BFF06A8FFF758FF104B236025621D
:1043F00003A8FFF752FF0E4B236002F043F84FF47F
:10440000165102F02FF800F015FE214601F006F8D3
:104410006846FFF742FF0CB070BD00BF78E603208E
:104420000000FFFF84E6032028920B0040930B005E
:1044300040920B0008B5024B1B685B6C019308BDF2
:104440004802030008B5024B1B689B6C019308BD32
:104450004802030008B5024B1B68DB6C019308BDE2
:104460004802030008B5024B1B685B6D019308BD51
:104470004802030008B5024B1B685B6E019308BD40
:104480003402030008B5024B1B685B68019308BD4A
:104490001802030008B5024B1B68DB68019308BDD6
:1044A0001802030008B5024B1B685B69019308BD45
:1044B0001802030008B5024B1B685B69019308BD35
:1044C0006402030008B5024B1B689B68019308BD9A
:1044D0006802030008B5024B1B68DB68019308BD46
:1044E0006802030008B5024B1B689B68019308BD76
:1044F0003C02030008B5024B1B68DB68019308BD52
:104500003C02030008B5024B1B681B69019308BD00
:104510003C02030008B5024B1B685B69019308BDB0
:104520003C02030008B5024B1B689B69019308BD60
:104530003C02030008B5024B1B68DB69019308BD10
:104540003C02030008B5024B1B689B6A019308BD3F
:104550003C02030008B5024B1B68DB6A019308BDEF
:104560003C02030008B5024B1B681B6B019308BD9E
:104570003C02030008B5024B1B681B6C019308BD8D
:104580003C02030008B5024B1B681B68019308BD81
:104590004C02030008B5024B1B685B68019308BD21
:1045A0004C02030008B5024B1B689B68019308BDD1
:1045B0004C02030008B5024B1B681B69019308BD40
:1045C0004C02030008B5024B1B685B69019308BDF0
:1045D0004C02030008B5024B1B689B69019308BDA0
:1045E0004C02030008B5024B1B68DB69019308BD50
:1045F0004C02030008B5024B1B681B6A019308BDFF
:104600004C02030008B5024B1B685B6B019308BDAD
:104610006002030008B5024B1B68DB6E019308BD06
:104620006002030008B5024B1B681B6F019308BDB5
:104630006002030008B5024B1B685B68019308BD6C
:104640002002030008B5024B1B685B69019308BD9B
:104650002002030008B5024B1B68DB6A019308BD0A
:104660002002030008B5034B1B68D3F88830019380
:1046700008BD00002002030008B5034B1B68D3F8F7
:104680009430019308BD00002002030008B5024BDE
:104690001B68DB6B019308BD4402030008B5024BA5
:1046A0001B685B68019308BD4002030008B5024B1C
:1046B0001B689B68019308BD4002030008B5024BCC
:1046C0001B68DB68019308BD4002030008B5024B7C
:1046D0001B681B69019308BD4002030008B5024B2B
:1046E0001B685B69019308BD4002030008B5024BDB
:1046F0001B689B69019308BD4002030008B5024B8B
:104700001B68DB69019308BD4002030008B5024B3A
:104710001B681B6A019308BD4002030008B5024BE9
:104720001B681B6B019308BD4002030008B5024BD8
:104730001B685B6B019308BD4002030008B5024B88
:104740001B681B6C019308BD4002030008B5024BB7
:104750001B685B6C019308BD4002030008B5024B67
:104760001B681B68019308BD1C02030008B5024BBF
:104770001B685B68019308BD1C02030008B5024B6F
:104780001B689B68019308BD1C02030008B5024B1F
:104790001B685B69019308BD1C02030008B5024B4E
:1047A0001B685B6A019308BD1C02030008B5024B3D
:1047B0001B681B6B019308BD1C02030008B5024B6C
:1047C0001B68DB6B019308BD1C02030008B5024B9C
:1047D0001B681B6C019308BD1C02030008B5024B4B
:1047E0001B685B6C019308BD1C0203000021FFF7EE
:1047F00029BF10B54368013B0446436063B90368B1
:104800009B689847A368013BA3602BB923682046A7
:10481000DB68BDE81040184710BD70B5D0E9005303
:10482000044605EB0316AE4204D0284601F060FCB6
:104830001035F8E72068FFF799FF204670BD10B5E6
:104840000446006808B1FFF7D4FF204610BD000001
:10485000024800230360FFF7EDBD00BFA8E6032078
:10486000002240681146FFF751BF00224068114600
:10487000FFF75CBF40680022FFF750BF406800228E
:1048800081F00101FFF73ABF002340681A4619463C
:10489000FFF72CBF002340681A461946FFF71EBFDA
:1048A000002240681146FFF711BF00224068114600
:1048B000FFF7FCBE406800220221FFF7FFBE002385
:1048C00040681A46FFF7EABE024B03225A60024ACA
:1048D0001A607047ACE6032058920B00704710B581
:1048E00018210446FFF7DBFB204610BDF0B5037D21
:1048F000062B8DB00E4600F104074FF0000412D0D5
:1049000000F1080515F8011D0A22304601F0A1FA50
:10491000AF42044419D0002CF4D02E21304601F0CF
:104920007FFA0444EEE72F236A4639460A208DF8C1
:104930000040FFF7BFFD684602F053FC33680246B3
:10494000DB68694630469847044620460DB0F0BD06
:1049500010B5054B0446112240F8043B002102F03B
:10496000E1FB204610BD00BF94920B000346074AAE
:1049700010B543F8042B01F1100251F8044B43F831
:10498000044B9142F9D10A781A7010BD94920B0031
:1049900010B59DF8084044EA032343EA024242EA84
:1049A000016104234160037510BD000007B5064B8B
:1049B0000360CB7800938B784A780978FFF7E8FF9B
:1049C00003B05DF804FB00BF94920B0000F11003EC
:1049D000012213F8101C0129184608D153F8041CB1
:1049E00002EB4102013A03F11003F2D170470229B0
:1049F00004BF53F8041C5218F4E70EB4F0B588B0A5
:104A000000AF07F13405102155F8042B7A600446F5
:104A10002B467818FD60FFF7C1FE0F287A681AD977
:104A200000F1080323F007036E46ADEB030D411CB4
:104A30002B466846FD60FFF7B1FE021E04DD2368C9
:104A400069469B6820469847B5462037BD46BDE875
:104A5000F04003B070470028F7D0236802469B68F7
:104A600007F1100120469847EFE738B50B6803605F
:104A70004D6843689D42044608D015B16B68013308
:104A80006B60606808B1FFF7B4FE656038BD07B5BC
:104A900003688DF807109B6801220DF10701984704
:104AA00003B05DF804FB0B461146002210B5C0E9C7
:104AB0000022044683600BB9204610BDFFF7D5FFE6
:104AC000FAE78368EBB11A78032A1AD8DFE802F014
:104AD0000417021B0520704702685B685268D05CAF
:104AE0002D2812D0A0F13003092B0ED974280ED036
:104AF00066280CD0A0F16E0358425841704706203A
:104B00007047002070470420704703207047022040
:104B1000704710B50446FFF7D4FF02280ED0C31E1D
:104B2000DBB2012B14D82268A36850685B68BDE82B
:104B300010400A220021184403F036BA2268A36804
:104B400052685B68D05CA0F174035842584110BDB4
:104B50000020FCE738B50023C0E9003304460E48C6
:104B6000C4E90203A9B10B78032B06D08BB91368F3
:104B700058684B68C35C6E2B07D013684D68586843
:104B80008B6828445B1BA060E36011462046FFF75A
:104B90006CFF204638BD00BF06930B0038B50025DA
:104BA0000B46C0E90055C0E90255C0E9045504466A
:104BB00011464BB11A78012A06D103F11002DB68C5
:104BC00082604361FFF751FF204638BD10B543694D
:104BD000044663B18068E060013B1030A060206152
:104BE000636113B1FFF7F2FEA060012000E01846F8
:104BF00010BD10B57D210446FFF749FF0123237145
:104C0000204610BD08B50379012B02D0022B04D039
:104C100008BD2C21FFF73BFFFAE73A21FAE710B570
:104C20000446FFF7EFFF20467B21FFF730FF00230C
:104C30002371204610BD000013B504460191FFF713
:104C4000E1FF2368019ADB68034920469847012366
:104C50002046237102B010BDA0920B0013B504468C
:104C60000191FFF7CFFF2368019ADB6803492046D3
:104C7000984701232046237102B010BDA3920B0078
:104C80002DE9F0470D46222190460446FFF7FFFE2E
:104C9000DFF8A490A8442F464745BA463DD017F800
:104CA000016B222E06D05C2E04D0304602F00AFAA8
:104CB0000028F1D12368AAEB05029B68294620460B
:104CC00098475C212046FFF7E2FE0D2E0AD8072EFA
:104CD0001CD9A6F10803052B18D8DFE803F00D0F47
:104CE00011171315222E01D05C2E0FD1314620460C
:104CF000FFF7CDFE3D46CFE76221F8E77421F6E7E6
:104D00006E21F4E76621F2E77221F0E7236832466C
:104D1000DB68494620469847ECE7BD4205D023684A
:104D20007A1B9B6829462046984722212046FFF798
:104D3000AEFEBDE8F08700BFA6920B0013B5044697
:104D4000CDE90021FFF75EFF2046DDE90021FFF7F6
:104D500097FF02232046237102B010BD13B504460D
:104D6000CDE90021FFF74EFF2046DDE90021FFF7E6
:104D700087FF01232046237102B010BD80680368BD
:104D8000DB6818477047084611B10B685B68184725
:104D90007047704770477047704738B504460D46F6
:104DA00000682E2102F001FA2368C31A2B6023B198
:104DB000037803B1013023682060184638BD10B570
:104DC0000C210446FFF76BF9204610BD10B50421F5
:104DD0000446FFF764F9204610BD10B504210446CF
:104DE000FFF75DF9204610BDFFF734BB08B502F0B0
:104DF000E6F9B0FA80F0400908BD704710B50C46DE
:104E000001F040FB844210D001F058FC844205D1EF
:104E100001F054FCBDE8104001F0CBBA2CB123687E
:104E200020465B68BDE81040184710BD0B68036062
:104E30004B68436013B15A6801325A60704713B52A
:104E400004460846019102F0CCF901990246204639
:104E500002B0BDE81040FFF781BF13B50446084615
:104E6000019102F0BEF923680199DB6802462046F1
:104E700002B0BDE81040184707B503688DF8071069
:104E8000DB6801220DF10701984703B05DF804FBD0
:104E90000EB403B503AB002153F8042B006A019351
:104EA00001F0C1F802B05DF804EB03B070470A6886
:104EB00002604A6842600022C0E9022210B5026125
:104EC0008C688460CC68C4600C698A60CA600461C4
:104ED0000A6110BD2DE9F74FD0E900844FF0140AA4
:104EE00000930AFB04F4184BA41017465C43454694
:104EF000002C21DD66100AFB06F005EB00093A469E
:104F0000B9F804B0285801915F4528BF5A4602F00D
:104F100070F9002801994FF001030BD15F4503D1CF
:104F2000009A13703446E3E7FCD9A61B09F1140577
:104F3000013EF7E7F9DBF5E7A5EB08050248AD1000
:104F4000684303B0BDE8F08FCDCCCCCC7FB503690E
:104F5000057E019103B3F9B1002600F10C0403961C
:104F600003A901A8FFF719FF0146A8B10DF10B0332
:104F7000039A8DF80B602046FFF7ACFF9DF80B30CD
:104F800053B12368142404FB0034083434F9023C80
:104F9000002BA8BFDDB2E3E7284604B070BD0000D7
:104FA00010B5094C2378BFF35B8FDB0709D420468B
:104FB000FFF784F828B12046FFF785F8034802F090
:104FC00077F8034810BD00BFB8E60320934D0B00EF
:104FD00094E4032010B5094C2378BFF35B8FDB0703
:104FE00009D42046FFF76AF828B12046FFF76BF88E
:104FF000034802F05DF8034810BD00BFBCE6032083
:10500000FB4D0B0098E4032038B500250446C0E9A9
:105010000055C0E904558560856140F8245FFFF7BD
:1050200009FAFFF7BDFFE061FFF7D4FF25732062A7
:10503000204638BD10B50A4C2378BFF35B8FDB07E1
:105040000CD42046FFF73AF840B10648FFF7DCFFE2
:105050002046FFF738F8044802F02AF8014810BD4E
:10506000B4E60320C4E6032089550B00024A034935
:1050700003480023FFF7D6BA6D530B00F9520B001B
:1050800079520B0000231A4619461846FFF7CABA90
:1050900037B58D6804466846FFF7C8FE6A4629465C
:1050A0002046FFF77BFD01A8FFF7C9FB204603B0B0
:1050B00030BD37B5CD6804466846FFF7B7FE6A468F
:1050C00029462046FFF746FD01A8FFF7B8FB20461A
:1050D00003B030BD37B50D6904466846FFF7A6FE3C
:1050E0006A4629462046FFF7DEFC01A8FFF7A7FB2A
:1050F000204603B030BD000070B58AB00D460146B1
:1051000004A8FFF7C5FF144E04A8FFF75FFDE8B140
:1051100004A96846FFF7CDFF02983146FFF766FE07
:10512000044610B12C1E18BF012401A8FFF787FB0D
:10513000002CE9D004A96846FFF7CCFF6846FFF7CA
:10514000E8FC286001A8FFF77AFBDDE705A8FFF778
:1051500076FB0AB070BD00BFAC920B0037B50C46B1
:1051600020461349154602F02AF850B901F08AF991
:105170004FF4165101F076F903B0BDE8304001F06C
:1051800081B90C49204602F01AF878B94FF4165349
:1051900001A928460193FFF7AFFF01F08FFA0199AB
:1051A00001F004F901F08AFA03B030BD0020FBE7FA
:1051B000B1920B00B8920B0070B5D0E900531426E1
:1051C000044606FB0356AE4205D005F10800FFF782
:1051D000F3FF1435F7E72068FFF7C8FA204670BDE3
:1051E00010B504460C30FFF7E7FF2046FFF715FB2C
:1051F000204610BD10B5044B044640F8043BFFF7B1
:10520000EFFF204610BD00BF28920B0010B50446EA
:10521000FFF7F0FF20462421FEF741FF204610BD96
:1052200010B5034B03600446FFF7E4FF204610BDB2
:1052300058930B0010B50446FFF7F2FF20462421D7
:10524000FEF72DFF204610BD0022C0E9002210B558
:1052500082600C6804604C6844608C680A604A6034
:1052600084608A6010BD10B5036804461868FFF7B3
:10527000F9F8204610BD00002DE9F04F87B08046B8
:1052800003931C4B5B68C3F30803894616466BB94E
:10529000FFF7D0FE044600F12403406A0593FFF7B0
:1052A000A3FD237B2BB105A8FFF7DDFF07B0BDE809
:1052B000F08F01232373D4E900535FFA89F905EBDA
:1052C000830AAA4512D055F8047B3146381DFFF7F2
:1052D0003DFE8145F5D33B68039A0092D3F808B0B0
:1052E0004A46334641463846D847EAE70023237307
:1052F000D9E700BF00ED00E02DE9F74F9B461A4BC0
:105300005B68C3F308038046894616466BB9FFF70E
:1053100091FE044600F12403406A0193FFF764FD07
:10532000237B2BB101A8FFF79EFF03B0BDE8F08FF0
:1053300001232373D4E90053F6B205EB830A5545E4
:105340000ED055F8047B5946381DFFF7FFFD864205
:10535000F5D33B684A46DB68414638469847EEE756
:1053600000232373DEE700BF00ED00E02DE9F341E9
:10537000164B5B68C3F3080305460F461BBBFFF7DC
:1053800059FE00F124030446406A0193FFF72CFD07
:10539000D4E90063462406EB8308B04509D101A88F
:1053A000FFF761FFA542B4BF0020012002B0BDE8B5
:1053B000F08156F8040B39460430FFF7C7FD8442EC
:1053C000A8BF0446E9E70020F0E700BF00ED00E0D9
:1053D000F8B5D0E901539D4204460E460DDB6F1C23
:1053E000002F006804DDB900FFF7C8F918B9F8BD4F
:1053F000FFF7BCF900202060A7602768626807EB10
:1054000085019200A2EB8502081D01F071FE47F8AC
:1054100025606368013363600120E8E737B500F178
:1054200024030446406A01930D46FFF7DDFCD4E9EE
:10543000003203EB8202934219460BD00968A9425D
:1054400003F10403F7D101A8FFF70DFF002528465B
:1054500003B030BD29462046FFF7BAFF05460028B5
:10546000F1D06368012B01D1FFF700FE01A8FFF71F
:10547000FAFEECE770B50446D0E900020B4600EBFB
:10548000820282420FD001461D6851F8046BAE4281
:1054900007D1521A01F02CFE6368013B63600120C2
:1054A00070BD0846EDE70020FAE71FB500F12403C0
:1054B0000446406A01910393FFF796FC01A9204638
:1054C000FFF7D8FF18B163680BB9FFF7DBFD03A83E
:1054D000FFF7C9FE04B010BD70B5D0E9045618231B
:1054E000044603FB0656AE4215D005F110012046D6
:1054F000FFF7C0FF63680BB9FFF7C4FDE0692969D6
:105500000368DB689847696919B1206A0368DB683A
:1055100098471835E7E7D4E90453182606FB0356E5
:10552000AE4204D0284600F0E3FD1835F8E700232A
:10553000636170BD73B50446FFF7A4FD04F1240355
:10554000606A0193FFF750FC2046FFF7C5FF01A8F2
:10555000FFF789FE606A08B1FEF774FFD4E90453CF
:10556000182606FB0356AE4204D0284600F0C0FDC4
:105570001835F8E72069FFF7F9F82068FFF7F6F823
:10558000204602B070BD00000148FFF7D3BF00BF46
:10559000C4E603208842F8B504460D46164615D9E0
:1055A000904214D2A2F11406751AA1F114072C44EA
:1055B000B7421AD01CB131462046FFF778FC06F1FD
:1055C0000800FFF7F9FD143E143CF1E70DD0B54299
:1055D0000BD01CB129462046FFF769FC05F10800F5
:1055E000FFF7EAFD14351434F1E7F8BD8842F8B549
:1055F00004460D46164614D9904213D2A2F1100665
:10560000751AA1F110072C44B74218D01CB13146CD
:10561000204600F0E9FD304600F06AFD103E103CE7
:10562000F2E70CD0B5420AD01CB12946204600F062
:10563000DBFD284600F05CFD10351034F2E7F8BDC4
:1056400070B50E1E054611DD3001FFF787F80446E0
:1056500058B1D5E9001201EB0212FFF7C7FF286825
:10566000FFF784F82C60AE60012070BD0024F6E7DF
:105670002DE9F04F904695B000230391D8F804101F
:105680000A9346229942C0E90033C0E90233C0E9D7
:105690000433CDE908330446027623DCD8E9005709
:1056A000142303FB0757AF423BD029460BA800F059
:1056B0009BFD0BA90FA8099E00F096FDDDE90913DB
:1056C00099421BDA089B099A03EB061603EB0212B8
:1056D000314606F11000FFF789FFEEB9099B01334F
:1056E000099311E008A8FFF7ABFF0028D6D108A85E
:1056F000FFF793F8204615B0BDE8F08F013108A8F8
:10570000FFF79EFF0028DDD10FA800F0F1FC0BA8E9
:1057100000F0EEFC1435C6E70FA9304600F064FD3A
:10572000DCE70026CDE90B660D964FF01409DDE9A4
:1057300008239E427CDA3301D35806930BB9013615
:10574000F5E70023079309FB06F302930BAD07A9C6
:1057500006A8FFF722FB82460028F0D04FF0000396
:105760008DF817300146079A0DF117032846FFF709
:10577000B1FB9DF817700190002F4AD1BDF81C3085
:10578000ADF84030CDE911774FF6FF73CDF83CA06E
:10579000ADF842301397D5E90132934217DB03F19C
:1057A000010ABAF1000F30DD09FB0AF0FEF7D6FF5F
:1057B000834660B3D5E9001209FB0212FFF7EAFE47
:1057C0002868FEF7D3FFC5F800B0C5F808A02B681D
:1057D000019A09FB023A6A68514609FB02320AF152
:1057E0001400FFF7D7FEBAF1000F03D00FA95046FF
:1057F000FFF75DFB6B6801336B6011A8FFF7DCFC02
:105800003FB10BA8FFF7D8FC71E7BB46D8E70127EB
:10581000F3E7019B2D6809FB0355069B1B782BB909
:10582000D8F80030029A13441B7CEB8008358EE7D1
:105830002168226062686360A36809920A9A0A93E9
:10584000E368A2600B9A0B932369E2600C9A0C93B5
:10585000636922610D9A0D93039B0891626123761F
:10586000CFE70000F0B5044687B00D46264619463E
:1058700068461746FEF752FD0B4B46F8043B694657
:1058800003A8FEF74BFD03AA39463046FFF7F0FEAA
:1058900003A8FEF702FD6846FEF7FFFC034B2360FA
:1058A0002046256207B0F0BD28920B0040930B0004
:1058B000F0B50F4685B01D490A9C384616461D4670
:1058C00001F07DFCC0B9A4B1294601A8FFF7BCFCDA
:1058D0001749242000F016FF054630B101AB3246CF
:1058E0002146FFF7BFFF134B2B6001A8FEF7D5FC45
:1058F0002C46204605B0F0BD0F49384601F05FFC4C
:1059000090B9002CF5D0294601A8FFF79DFC084965
:10591000242000F0F7FE05460028E6D001AB324611
:105920002146FFF79FFFE0E70024E2E7C0920B006B
:105930009C940B0058930B00C4920B00014B024A3D
:105940001A607047C0E60320D5920B002DE9F0479E
:10595000089DD0F8209004460E461746984600F061
:1059600091FD81454CD02B79190704D56A695449BA
:105970002046FFF78DFAB8F1000F0DD05B212046CD
:10598000FFF77AFA41462046FFF767FA23684D4948
:10599000DB680222204698472B79DA0723D5D5F811
:1059A00008802F21404601F038FC08B100F10108C1
:1059B00041462046FFF751FA2B799B0708D53A213B
:1059C0002046FFF759FAEA683F492046FFF760FA98
:1059D0002A79236812F0040FDB6814BF3B493C4965
:1059E0000222204698472B7958071DD529690B4676
:1059F0001A4613F8010B60B1202808D11946F7E7C1
:105A0000344800F066F90028ADD0BDE8F0872828BA
:105A1000EED12368521ADB682046984723682E4946
:105A2000DB6804222046984700213846FEF7F2FD45
:105A300001462046FFF711FA23682549DB68022258
:105A4000204698471EB131462046FFF706FA2B79CB
:105A500013F0300F2CD023682049DB680222204647
:105A600098472B79D9060AD523681D49DB68072298
:105A700020469847AA691B492046FFF709FA2B7967
:105A80009A0611D5DB0605D523681049DB6802228A
:105A90002046984723681449DB6820460A22984725
:105AA000E9692046FFF7D9F95D212046FFF7E4F9BF
:105AB00023680E49DB6820460222BDE8F0471847FC
:105AC000D9920B00E0920B00A0920B00E3920B0026
:105AD000E8920B00ECE60320E6920B00EB920B0041
:105AE000EE920B00F6920B00F9920B0004930B0060
:105AF0002DE9F04385B0D0F820900C9C05460F4668
:105B000090461E4600F0BEFC814505D1494800F094
:105B1000E0F8002840F08A802B6A474A01924FF053
:105B2000000901A803938DF80890FFF778F849461B
:105B30004046FEF76FFD41498046012201A8FFF76C
:105B4000FDF84146FFF77BF93FB13D49012201A82D
:105B5000FFF7F4F83946FFF772F93EB139490122EF
:105B600001A8FFF7EBF83146FFF769F92379DF0762
:105B70000ED5A6682F21304601F04FFB00B1461C20
:105B80003149012201A8FFF7D9F83146FFF757F94B
:105B900023799E0707D52D49022201A8FFF7CEF8E9
:105BA000E168FFF749F82379580714D52669334689
:105BB0001F4613F8012B2AB1202A01D11E46F7E710
:105BC000282AF5D12249022201A8FFF7B7F8BA1B0B
:105BD0003146FFF7C3F82379190707D51D4901227C
:105BE00001A8FFF7ABF86169FFF738F82379DA0607
:105BF00008D5042218490DEB0200FFF79FF8A169B0
:105C0000FFF71AF823799B0607D51449062201A845
:105C1000FFF794F8E169FFF712F901A8FEF7E9FF31
:105C2000286A0F4903680222DB68984705B0BDE87F
:105C3000F08300BFECE6032028930B00B6920B0024
:105C400007930B0048970B00DA930B0009930B00A6
:105C50000C930B000F930B0011930B0016930B008A
:105C600004930B00002340681A46FEF717BD4068F6
:105C700000220221FEF722BD002240681146FEF7F5
:105C800015BD002240681146FEF720BD0023406884
:105C90001A461946FEF722BD002340681A461946E7
:105CA000FEF724BD40680021FEF748BD4068002192
:105CB000FEF74CBD4068002281F00101FEF71EBDD9
:105CC00040680022FEF72ABD002240681146FEF718
:105CD0002DBD002240681146FEF718BD2DE9F043A6
:105CE00095B014460D460746FEF732FE00211C22F1
:105CF0000DA8009101F016FA40230C9320466B4644
:105D00000CAA0021FEF7E6FB044600284BD1024610
:105D100001216868FEF7DAFC0221804622466868A5
:105D2000FEF7D4FC009E81462146002E3BD0002980
:105D300039D17368022B03D00A2B11D0F669F4E72E
:105D4000B8F1000FFAD0716906A8043107ADFEF76B
:105D50002DFE0FCD3C1D0FC42B6823704146EDE78F
:105D6000B9F1000FEAD07469102201A801F0DAF944
:105D700006238DF8143001AD04F1080318341868B7
:105D800059682A4603C20833A3421546F7D101A930
:105D900006A807ADFEF7EAFD0FCD3C1D0FC42B682A
:105DA00023704946CAE70098FEF78CFB384615B0C9
:105DB000BDE8F083024B034A1A6000225A60704724
:105DC000ECE60320A0930B00F8B506460D468F18AD
:105DD0000024BD420CD0336815F8011B9B68304687
:105DE0009847031E01DB1C44F3E7002C08BF1C4648
:105DF0002046F8BD13B50446084659B1019101F09B
:105E0000F0F923680199DB680246204602B0BDE83C
:105E10001040184702B010BD08B5FFF7EBFF08BDF2
:105E200003689B68184738B50D210546FFF7F8FF52
:105E30000A2104462846FFF7F3FF204438BD38B551
:105E40000546FFF7D7FF04462846FFF7ECFF20443E
:105E500038BD30B58BB00023012A8DF8243098BFAF
:105E60000A2209AC0D46B1FBF2F101FB125303F01B
:105E7000FF03092B94BF30333733DBB2AA4204F857
:105E8000013DEFD92146FFF7B5FF0BB030BD000053
:105E90002DE9F74F55EC104B06460F4610EE102A31
:105EA00010EE100A2B46294601F086F840B15349FE
:105EB0003046FFF79FFF8246504603B0BDE8F08FA3
:105EC00025F000494E4B4FF0FF322046494601F085
:105ED00073F848B94A4B4FF0FF322046494601F06B
:105EE0004DF808B94749E3E7474B4FF06042204679
:105EF000294601F057F808B14449D9E7444B4FF01F
:105F000060422046294601F02FF80028F4D10022F3
:105F100000232046294601F027F8D0B12D21304634
:105F2000FFF77EFF05F1004382461D463949DFF841
:105F3000EC904FF0000B00204FF000085FFA8BF35D
:105F40009F4208D942464B4600F0C6FE0BF1010BBA
:105F5000F4E78246EAE722462B4600F0DDFB0D46D9
:105F6000044601F067F8804600F012FD02460B4639
:105F70002046294600F0CEFB0A2204460D46304654
:105F80004146FFF766FF8244002F95D02249DFF893
:105F90008C903046FFF72EFF4FF000088244002F10
:105FA0008AD042464B462046294600F06BFD044607
:105FB0000D4601F017F8B0F1000B1CDA2D21304628
:105FC000FFF72EFFCBF1000103460A223046019372
:105FD000FFF73FFF019B18448244584600F0E8FC5D
:105FE00002460B462046294600F094FB013F04463A
:105FF0000D46FFB2D3E759460023E6E7D4930B00E2
:10600000FFFFEF7FD8930B00FFFFEF41DC930B0006
:10601000FFFFEFC10000E03FE0930B0000002440D1
:10602000C9B2FFF735BF2DE9F04186B000AF054694
:106030000E46381D142114463B60FEF7AFFB1328B3
:106040000ED8391D2846FFF7D5FE04461EB1284656
:10605000FFF7E9FE044420461837BD46BDE8F0814D
:1060600000F1080323F00703E846ADEB030D2246D9
:10607000411C3B686846FEF791FB69462846FFF7DE
:10608000B9FE0446C546E1E7014B00229A6070471D
:10609000F4E6032010B50446FEF704FAE060236836
:1060A00020465B699847002808DAFEF7FBF9E368A9
:1060B000C01AA3689842F2D34FF0FF3010BD000021
:1060C00070B50D4609490446164600F05CF82846AE
:1060D000FFF7E0FF002806DB864204D0C1B220466D
:1060E00000F0C6F8F3E7204670BD00BF06930B0032
:1060F00010B504460068FEF739FB204610BD10B508
:106100000446006808B1FEF731FB0023C4E90133FF
:10611000236010BD38B504460D4600680131FEF716
:106120002DFB10B1C4E90005012038BD10B503688E
:10613000044623B143688B4201D3012010BD2046A1
:10614000FFF7E8FF0028F9D0A368002BF5D12268FB
:106150001370F2E737B50D46114601920446FFF77A
:10616000E5FF019A28B92046FFF7C9FF204603B092
:1061700030BDA2602946206800F0ACFF2268A36809
:106180000021D154F2E7002313B5C0E900330446DF
:106190008360037341B10846019101F022F801992F
:1061A00002462046FFF7D6FF204602B010BD38B5A4
:1061B000054600680C4668B16A688B689A4207D346
:1061C000096801F006F8A368AB600023A36038BD3E
:1061D000FEF7CCFA23682B6063686B60A368AB6042
:1061E0000023C4E90033F1E710B50023C0E9003310
:1061F000044683600373FFF7DAFF204610BD884230
:1062000010B5044605D00B682BB18A681946FFF714
:10621000A1FF204610BDFFF772FFFAE710B500237B
:106220000446C0E9003383600373FFF7E8FF2046AC
:1062300010BD884210B5044601D0FFF7B8FF2046D4
:1062400010BD70B505460E4609B9002070BD6AB193
:10625000846814442146FFF769FF0028F5D02868B8
:10626000AB683146184400F0B4FFAC600120EDE7A4
:1062700007B500238DF80410012201A98DF805301F
:10628000FFF7DFFF03B05DF804FB10B51346846829
:106290008A68A41A9C420AD3006838B1096841B1DF
:1062A000184400F0A6FFB0FA80F0400910BD0020AD
:1062B000FCE70846FAE782688B689A4202D300221C
:1062C000FFF7E3BF00207047054B02221A60054B21
:1062D000054A9A600020C3E90000FEF7ABB900BF91
:1062E00010E7032004E703200000FFFF024B1A68B9
:1062F000024B1A60704700BF9CE4032014E70320A0
:1063000070474174704708B5007CFEF71BF920EA1E
:10631000E07008BD08B5007CFEF7F4F820EAE070F4
:1063200008BD08B5007CFEF7FDF840EAE07008BD46
:1063300008B5007CFEF7EEF840EAE07008BD007C8E
:10634000FEF7F8B837B5457C04462DB1207C03B084
:10635000BDE83040FEF7CEB8007C0191FEF7F2F8C0
:1063600000280199F2DC284603B030BD10B5142195
:106370000446FDF794FE204610BD000010B54FF412
:106380007A730446084611460022C4E90123044BEF
:106390002360012320746374FEF7ECF8204610BDDF
:1063A00008940B00007C0023FEF7D4B80022FFF70E
:1063B000F9BF007CFEF796B8007CFEF7D3B84174B5
:1063C00070477047704708B50021007CFEF702F95E
:1063D00040EAE07008BD08B50121007CFEF7FAF83C
:1063E00040EAE07008BD08B5007CFEF7EBF820EA53
:1063F000E07008BD08B5007CFEF7DCF820EAE0702C
:1064000008BD13B50446007C0191FEF7DBF80028B7
:10641000019901DC607C20B1207CFEF7E3F820EAE2
:10642000E07002B010BD007CFEF7E4B810B5142196
:106430000446FDF734FE204610BD000010B54FF4B1
:106440007A73044608460021C4E90113044B236013
:106450000123207463741146FEF794F8204610BDA2
:1064600038940B00007C0022FEF794B8007CFEF705
:1064700099B810B514220446002100F053FE2046BE
:1064800010BD000010B50F4C88B003A8FFF7F1FF56
:106490002178BFF35B8F11F001010FD120460191EC
:1064A000FDF70CFE019948B103AA0748FFF7C6FFA4
:1064B0002046FDF708FE054800F0FAFD024808B046
:1064C00010BD00BF18E703201CE70320C3630B00C7
:1064D000002240681146FEF7F9B8002240681146D4
:1064E000FEF714B9002240681146FEF71FB9406854
:1064F0000022FEF713B94068002281F00101FEF787
:10650000FDB8002340681A461946FEF7EFB800238D
:1065100040681A461946FEF7E1B800224068114665
:10652000FEF7C4B8406800220221FEF7C7B8002376
:1065300040681A46FEF7B2B8024B04225A60024A7B
:106540001A60704730E7032068940B00014B186015
:10655000704700BFA0E4032008B50B4B43B1FFF721
:1065600091FF03681B699847002801DDAFF30080A5
:10657000064B43B100F0A2F803681B699847002856
:1065800001DDAFF3008008BD000000000000000046
:1065900008B5FFF7E1FFFDF785FF014B186008BD67
:1065A00040E703200548064A064908B5121A00F0DC
:1065B00091FD054B054A1A6008BD00BF00F4032099
:1065C00004F4032094980B0000F403201E1C279A67
:1065D00007B5002300931A466FF07701FEF74CF8D9
:1065E00003B05DF804FB000007B543880A2B08D010
:1065F000502B0BD1094B1B684BB103B05DF804EB7A
:106600001847FFF7E5FF03B05DF804FB0023009394
:106610001A466FF07701FEF72FF8F4E73CE7032006
:1066200010B512480021FEF7D9F8114B1A68114B2A
:106630009A42114B0CBF012200221A7001D0FFF7C1
:10664000B1FFFDF71FFF044600F074FD0B4B13B1C3
:106650002046AFF3008000210848FEF717F8BDE898
:10666000104007480021FDF7FDBF00BF4D650B003E
:1066700000F403201E1C279A38E7032000000000C6
:10668000E9650B007047000038B5044614252A461A
:10669000002100F047FD2580402507492581284637
:1066A000258200F031F804496060284600F02CF89B
:1066B000E060204638BD00BF9C940B0030B50E4D05
:1066C0002978BFF35B8F11F0010487B011D1284600
:1066D000FDF7F4FC68B101A8FFF7D6FF01AA214637
:1066E0000648FFF74BFE2846FDF7EDFC044800F096
:1066F000DFFC024807B030BD44E7032048E7032031
:1067000085660B00FDF7C7BCFDF7C7BC81F00041F3
:1067100002E000BF83F0004330B54FEA41044FEA86
:10672000430594EA050F08BF90EA020F1FBF54EA21
:10673000000C55EA020C7FEA645C7FEA655C00F0BD
:10674000E2804FEA5454D4EB5555B8BF6D420CDD8E
:106750002C4480EA020281EA030382EA000083EA11
:10676000010180EA020281EA0303362D88BF30BDB1
:1067700011F0004F4FEA01314FF4801C4CEA113107
:1067800002D0404261EB410113F0004F4FEA033366
:106790004CEA133302D0524263EB430394EA050FF1
:1067A00000F0A780A4F10104D5F1200E0DDB02FA60
:1067B0000EFC22FA05F2801841F1000103FA0EF2F4
:1067C000801843FA05F359410EE0A5F120050EF1BA
:1067D000200E012A03FA0EFC28BF4CF0020C43FAEB
:1067E00005F3C01851EBE37101F0004507D54FF0F8
:1067F000000EDCF1000C7EEB00006EEB0101B1F548
:10680000801F1BD3B1F5001F0CD349085FEA30008D
:106810004FEA3C0C04F101044FEA445212F5800F98
:1068200080F09A80BCF1004F08BF5FEA500C50F135
:10683000000041EB045141EA050130BD5FEA4C0C18
:10684000404141EB0101013C28BFB1F5801FE9D275
:1068500091F0000F04BF01460020B1FA81F308BF98
:106860002033A3F10B03B3F120020CDA0C3208DD64
:1068700002F1140CC2F10C0201FA0CF021FA02F13F
:106880000CE002F11402D8BFC2F1200C01FA02F1AF
:1068900020FA0CFCDCBF41EA0C019040E41AA2BFD4
:1068A00001EB0451294330BD6FEA04041F3C1CDA9C
:1068B0000C340EDC04F11404C4F1200220FA04F0BC
:1068C00001FA02F340EA030021FA04F345EA030166
:1068D00030BDC4F10C04C4F1200220FA02F001FA28
:1068E00004F340EA0300294630BD21FA04F02946AA
:1068F00030BD94F0000F83F4801306BF81F4801143
:106900000134013D4EE77FEA645C18BF7FEA655CB5
:1069100029D094EA050F08BF90EA020F05D054EA87
:10692000000C04BF1946104630BD91EA030F1EBF8C
:106930000021002030BD5FEA545C05D14000494190
:1069400028BF41F0004130BD14F580043CBF01F583
:10695000801130BD01F0004545F0FE4141F4700169
:106960004FF0000030BD7FEA645C1ABF1946104644
:106970007FEA655C1CBF0B46024650EA013406BF45
:1069800052EA033591EA030F41F4002130BD00BF04
:1069900090F0000F04BF0021704730B54FF48064C1
:1069A00004F132044FF000054FF0000150E700BF42
:1069B00090F0000F04BF0021704730B54FF48064A1
:1069C00004F1320410F0004548BF40424FF000018E
:1069D0003EE700BF42004FEAE2014FEA31014FEAD1
:1069E00002701FBF12F07F4393F07F4F81F0605120
:1069F000704732F07F4208BF704793F07F4F04BF6B
:106A000041F40021704730B54FF4607401F0004547
:106A100021F000411CE700BF50EA010208BF7047A7
:106A200030B54FF000050AE050EA010208BF704798
:106A300030B511F0004502D5404261EB41014FF401
:106A4000806404F132045FEA915C3FF4D8AE4FF009
:106A500003025FEADC0C18BF03325FEADC0C18BFEC
:106A6000033202EBDC02C2F1200300FA03FC20FA3D
:106A700002F001FA03FE40EA0E0021FA02F114448A
:106A8000BDE600BF70B54FF0FF0C4CF4E06C1CEAA3
:106A900011541DBF1CEA135594EA0C0F95EA0C0F14
:106AA00000F0DEF82C4481EA030621EA4C5123EA87
:106AB0004C5350EA013518BF52EA033541F48011B6
:106AC00043F4801338D0A0FB02CE4FF00005E1FB69
:106AD00002E506F00042E0FB03E54FF00006E1FBB3
:106AE00003569CF0000F18BF4EF0010EA4F1FF04F6
:106AF000B6F5007F64F5407404D25FEA4E0E6D4136
:106B000046EB060642EAC62141EA55514FEAC52046
:106B100040EA5E504FEACE2EB4F1FD0C88BFBCF5C2
:106B2000E06F1ED8BEF1004F08BF5FEA500E50F173
:106B3000000041EB045170BD06F0004646EA010139
:106B400040EA020081EA0301B4EB5C04C2BFD4EB6B
:106B50000C0541EA045170BD41F480114FF0000E64
:106B6000013C00F3AB8014F1360FDEBF002001F0D2
:106B7000004170BDC4F10004203C35DA0C341BDC4C
:106B800004F11404C4F1200500FA05F320FA04F01E
:106B900001FA05F240EA020001F0004221F0004152
:106BA00010EBD37021FA04F642EB06015EEA430EC5
:106BB00008BF20EAD37070BDC4F10C04C4F12005F5
:106BC00000FA04F320FA05F001FA04F240EA0200A8
:106BD00001F0004110EBD37041F100015EEA430E79
:106BE00008BF20EAD37070BDC4F1200500FA05F299
:106BF0004EEA020E20FA04F301FA05F243EA020318
:106C000021FA04F001F0004121FA04F220EA020026
:106C100000EBD3705EEA430E08BF20EAD37070BD6C
:106C200094F0000F0FD101F00046400041EB01014C
:106C300011F4801F08BF013CF7D041EA060195F02E
:106C4000000F18BF704703F00046520043EB0303E8
:106C500013F4801F08BF013DF7D043EA06037047D5
:106C600094EA0C0F0CEA135518BF95EA0C0F0CD0E0
:106C700050EA410618BF52EA4306D1D181EA030126
:106C800001F000414FF0000070BD50EA410606BF20
:106C90001046194652EA430619D094EA0C0F02D165
:106CA00050EA013613D195EA0C0F05D152EA0336AA
:106CB0001CBF104619460AD181EA030101F00041C8
:106CC00041F0FE4141F470014FF0000070BD41F011
:106CD000FE4141F4780170BD70B54FF0FF0C4CF4EB
:106CE000E06C1CEA11541DBF1CEA135594EA0C0F0A
:106CF00095EA0C0F00F0A7F8A4EB050481EA030E57
:106D000052EA03354FEA013100F088804FEA03333D
:106D10004FF0805545EA131343EA12634FEA02220B
:106D200045EA111545EA10654FEA00260EF00041CC
:106D30009D4208BF964244F1FD0404F5407402D21E
:106D40005B084FEA3202B61A65EB03055B084FEAAF
:106D500032024FF480104FF4002CB6EB020E75EBAC
:106D6000030E22BFB61A754640EA0C005B084FEAD4
:106D70003202B6EB020E75EB030E22BFB61A754651
:106D800040EA5C005B084FEA3202B6EB020E75EB9C
:106D9000030E22BFB61A754640EA9C005B084FEA14
:106DA0003202B6EB020E75EB030E22BFB61A754621
:106DB00040EADC0055EA060E18D04FEA051545EA10
:106DC00016754FEA06164FEAC30343EA52734FEAB9
:106DD000C2025FEA1C1CC0D111F4801F0BD141EA32
:106DE00000014FF000004FF0004CB6E711F4801F97
:106DF00004BF01430020B4F1FD0C88BFBCF5E06F77
:106E00003FF6AFAEB5EB030C04BFB6EB020C5FEA86
:106E1000500C50F1000041EB045170BD0EF0004EDB
:106E20004EEA113114EB5C04C2BFD4EB0C0541EA0D
:106E3000045170BD41F480114FF0000E013C90E60A
:106E400045EA060E8DE60CEA135594EA0C0F08BFCE
:106E500095EA0C0F3FF43BAF94EA0C0F0AD150EACD
:106E600001347FF434AF95EA0C0F7FF425AF104660
:106E700019462CE795EA0C0F06D152EA03353FF488
:106E8000FDAE1046194622E750EA410618BF52EA05
:106E900043067FF4C5AE50EA41047FF40DAF52EAD9
:106EA00043057FF4EBAE12E74FF0FF3C06E000BF76
:106EB0004FF0010C02E000BF4FF0010C4DF804CD83
:106EC0004FEA410C7FEA6C5C4FEA430C18BF7FEA43
:106ED0006C5C1BD001B050EA410C0CBF52EA430C71
:106EE00091EA030F02BF90EA020F0020704710F1F1
:106EF000000F91EA030F58BF994208BF90422CBF80
:106F0000D8176FEAE37040F0010070474FEA410C78
:106F10007FEA6C5C02D150EA013C07D14FEA430C96
:106F20007FEA6C5CD6D152EA033CD3D05DF8040B07
:106F3000704700BF8446104662468C461946634639
:106F400000E000BF01B5FFF7B7FF002848BF10F110
:106F5000000F01BD4DF808EDFFF7F4FF0CBF012055
:106F600000205DF808FB00BF4DF808EDFFF7EAFFD1
:106F700034BF012000205DF808FB00BF4DF808ED8C
:106F8000FFF7E0FF94BF012000205DF808FB00BF81
:106F90004DF808EDFFF7CEFF94BF012000205DF80B
:106FA00008FB00BF4DF808EDFFF7C4FF34BF012018
:106FB00000205DF808FB00BF4FEA410C7FEA6C5CE3
:106FC00002D150EA013C0AD14FEA430C7FEA6C5CE3
:106FD00002D152EA033C02D14FF0000070474FF05B
:106FE000010070474FEA410212F5001215D211D587
:106FF0006FF47873B3EB625212D94FEAC12343F0B6
:10700000004343EA505311F0004F23FA02F018BF37
:10701000404270474FF00000704750EA013005D100
:1070200011F0004008BF6FF0004070474FF00000C3
:10703000704700BF4A0011D212F5001211D20DD5CF
:107040006FF47873B3EB62520ED44FEAC12343F06E
:10705000004343EA505323FA02F070474FF0000018
:10706000704750EA013002D14FF0FF3070474FF0C7
:1070700000007047D0B50C4B002206460F46FFF7C4
:1070800001FDFFF7D7FF0446FFF782FC074B002204
:10709000FFF7F8FC02460B4630463946FFF73AFB4D
:1070A000FFF7C8FF2146D0BD0000F03D0000F041D1
:1070B000002301461A46184600F080BF002100F068
:1070C000E5BE0000024B1844407800F0970070477E
:1070D00068950B000A44914200F1FF3300D17047DC
:1070E00010B511F8014B03F8014F9142F9D110BDD1
:1070F000884210B501EB020402D98442234607D826
:10710000431EA14208D011F8012B03F8012FF8E724
:10711000024401468A4200D110BD13F8014D02F825
:10712000014DF7E702440346934200D1704703F84C
:10713000011BF9E738B5104B1D68AB6B0446B3B9BA
:107140001820FDF70BFB0246A86320B90B4B0C4837
:107150004221FDF73BFB0B490B4BC0E900130B4BE6
:1071600083600B23838100210120C2E90401AB6B02
:1071700000221C615A6138BDA0E403209D940B00DD
:10718000B4940B000E33CDAB34126DE6ECDE05008B
:10719000C9B2034610F8012B1AB18A42F9D1184638
:1071A0007047002918BF0023F9E710B50446FFF720
:1071B000EFFF18B9204600F014F8204410BD10F875
:1071C000012B11F8013B012A28BF9A42F7D0D01AAF
:1071D0007047034611F8012B03F8012B002AF9D15F
:1071E0007047034613F8012B002AFBD1181A013807
:1071F000704710B57AB103460139841813F8010BB2
:1072000011F8012F904201D1A34201D1801A10BD83
:107210000028F3D1FAE71046F9E738B503460C46E3
:1072200069B9BDE83840FFF7B3BF431C05462146A6
:107230001846FFF7ADFF0028F7D1284638BD0025D6
:10724000F5E770B504460D4645EC104B164601F0C7
:107250000FFE51EC100B7EB1C5F30A53C3F16B0363
:10726000002B09DD1B0503F17F55002405F54015B2
:1072700022462B46FFF706FC70BD00000000000010
:107280002DE9F04F2DED028B9DB01F460023189382
:10729000A24B13921B680593044618468846FFF7D5
:1072A000A0FF4FF0000A05464FF0000BCDF85C80C0
:1072B000179B1A782B2A4ED03BD80D2A34D8082A8F
:1072C00034D8002A3ED000230A93179E3378302BFF
:1072D00040F0B080737803F0DF03582B68D10A9B2D
:1072E000019318AB029700938D4A19AB17A920465A
:1072F00000F02EFF10F00707054605D0062F2CD111
:107300000136002317960A93139B002B40F09085BB
:107310000A9BEBB152460BF1004343EC102B1DB01E
:10732000BDEC028BBDE8F08F202ACCD1013317933E
:10733000BEE72D2AC7D101220A925A1C17925B7808
:10734000002BC2D1139BCDF85C80002B40F06E85E2
:1073500052465B46E1E70022EEE7189A3AB1352142
:107360001AA801F090FE1899204601F04FFA013F4B
:10737000042F06D8DFE807F00A0314170A00DDE936
:107380001AAB2807C0D54BF0004BBDE7DDE91AA3C7
:10739000199A23F4801302F2334243EA025BF0E7C6
:1073A000DFF880B1EDE76FF0004B4FF0FF3AE8E710
:1073B000179B5A1C17925B78302BF9D0002BA3D067
:1073C00001234FF000090493179B0893CDF81C90FC
:1073D0004F460A2217980678A6F13003D9B2092938
:1073E0002AD905992A46FFF704FF98B300203246B0
:1073F0003D4605900346652A01D0452A18D11DB99E
:10740000049A02439ED00025DDF85C8008F1010259
:10741000179298F801202B2A75D02D2A7BD04FF097
:10742000000CA2F13001092940F28280CDF85C8085
:1074300000269DE00023C4E7082FD8BF079900F17C
:107440000100DABF02FB0133079302FB0939013760
:107450001790BFE7179B5A1917925A5D002F37D024
:1074600005903D46A2F13003092B12D90123C2E752
:10747000179B5A1C17925A780130302AF8D0A2F183
:107480003103082B00F2D984179B05900020089344
:107490000546303A00F1010314D0059919440591CD
:1074A0002B4600EB050E0A21734513D12B18082B30
:1074B00005F1010505441CDC07990A2303FB0123A0
:1074C00007930023179A511C179152781846C9E761
:1074D0003846D2E7082B04DC079E4E43079601335B
:1074E000E2E703F1010CBCF1100FD8BF01FB09F971
:1074F000F5E7102DDCBF0A2303FB0929E1E7002390
:10750000059301237CE74FF0000C08F1020217926B
:1075100098F8022085E74FF0010CF6E7DC960B00A7
:1075200014950B000000F07F179A511C17915278A8
:10753000302AF9D0A2F1310108293FF679AFA2F142
:10754000300E179A0692179A511C17915278A2F191
:107550003006092E37D9069E891B082944F61F6676
:1075600002DC7645A8BF7646BCF1000F00D076421B
:10757000002D4DD1049901437FF4C6AE002B7FF45A
:10758000E1AE692A27D024DC492A24D04E2A7FF490
:10759000D9AE9F4917A801F033F800283FF4D2AEC6
:1075A000179B1B78282B2DD19A491AAA17A801F0EE
:1075B0003BF8052826D11B9BDDF868A043F0FF4B64
:1075C0004BF4E00BA0E60A2101FB0E2EAEF1300ECB
:1075D000B9E76E2ADBE7904917A801F011F80028F7
:1075E0003FF4B0AE179B8D49013B17A8179301F0EC
:1075F00007F810B9179B01331793DFF830B24FF03B
:10760000000A81E6864801F093FD5BEC10AB7BE657
:10761000059B0798F31A002F08BF2F46102D0693DD
:10762000A846A8BF4FF01008FFF7B2F9092D82460F
:107630008B4613DD7B4B03EBC80353E91223FFF7A3
:1076400021FA824648468B46FFF7A2F902460B46CE
:1076500050465946FFF760F882468B460F2D38DCBE
:10766000069B002B3FF450AE24DD162B0BDC6D493E
:1076700001EBC301D1E9000152465B46FFF702FA74
:1076800082468B4640E6069AC5F12503934220DBED
:10769000644CC5F10F0504EBC50152465B46D1E9C8
:1076A0000001FFF7EFF9069B5D1B04EBC504D4E96D
:1076B0000023E3E7069B16330BDB059B9E1B594B10
:1076C00003EBC606D6E9002350465946FFF704FBF4
:1076D000D6E7069BA5EB08089844B8F1000F74DDC7
:1076E00018F00F030AD04F4901EBC30152465B4625
:1076F000D1E90001FFF7C6F982468B4638F00F0842
:107700004FD0B8F59A7F22DD00252E4607950595C6
:107710002223DFF818B123604FF0000A079B002BEB
:107720003FF4F2AD1899204601F070F80599204613
:1077300001F06CF83146204601F068F807992046C0
:1077400001F064F82946204601F060F8DCE5364B8C
:10775000049300234FEA2818504659469946B8F139
:10776000010F21DC0BB182468B462F4BABF1547BD2
:1077700003EBC90952465B46D9E90001FFF782F9DC
:107780002A4B0A460B402A498B428246BCD8A1F5B7
:1077900080118B4286BFDFF89CB04FF0FF3A02F1B8
:1077A000547B0023049384E018F0010F05D0049B60
:1077B000D3E90023FFF766F90123049A083209F19F
:1077C00001094FEA68080492C9E7EAD0C8F1000845
:1077D00018F00F020AD0134B03EBC2035046594670
:1077E000D3E90023FFF778FA82468B465FEA281830
:1077F000D7D0B8F11F0F1FDD00252E460795059540
:1078000022234FF0000A4FF0000B236086E700BFF1
:10781000D5930B0028950B00D9930B000D950B0009
:1078200006930B0078970B0050970B000000F07F39
:107830000000A07CFFFFEF7F18F0100318BF6A2341
:10784000DFF8AC93049350465946002318F0010F1B
:1078500004D0D9E90023FFF715F901235FEA68088E
:1078600009F10809F2D10BB182468B46049BC3B1E2
:10787000CBF30A52C2F16B03002B594611DD1F2BCB
:1078800040F32481342BDEBFC2F14B024FF0FF33B3
:1078900003FA02F24FF0000ACCBF4FF05C7B02EA21
:1078A000010B0022002350465946FFF753FB0028E6
:1078B000A2D1079B009308992B463A46204601F037
:1078C0000DF8079000283FF41FAF059B9E1B069BF9
:1078D000002BB4BF334600230C93069B002523EAFC
:1078E000E37312932E46079B2046596800F04EFF23
:1078F000059000283FF40CAF079B1A69023203F190
:107900000C0192000C30FFF7E5FB4BEC10AB1AAA10
:1079100019A9204601F028FB4BEC18AB1890002861
:107920003FF4F6AE0121204601F072F80646002829
:107930003FF4EEAE199B0499002BABBF0C9A129A40
:10794000129FDDF83090ACBF03EB0209D71A1A9AE8
:10795000A3EB01089044A14B08F1FF389845C2F110
:10796000360280F2C780A3EB08031F2BA2EB0302B1
:107970004FF0010100F3B18001FA03F30D930023EE
:10798000089309EB0208049BC14517441F444B466A
:10799000A8BF4346BB42A8BF3B46002BC2BFA8EBD3
:1079A0000308FF1AA9EB03090C9B002B17DD3146D6
:1079B0001A46204601F0ECF8064600283FF4A8AE2F
:1079C0000146189A204601F039F80B9000283FF440
:1079D0009FAE1899204600F019FF0B9B1893B8F141
:1079E000000F00F38C80069B002B08DD129A05998E
:1079F000204601F0CDF8059000283FF489AE002F15
:107A000008DD05993A46204601F01CF9059000284A
:107A10003FF47EAEB9F1000F08DD31464A462046FC
:107A200001F010F9064600283FF472AE059A189945
:107A3000204601F093F9054600283FF469AEC3687B
:107A40000B930023C360314601F06CF9002860DA23
:107A50000B9B53EA0A0340F08280CBF31303002B05
:107A60007DD12BF000431B0D1B05B3F1D66F76D9EA
:107A70006B6913B92B69012B71DD29460122204660
:107A800001F0E0F83146054601F04CF9002866DDCA
:107A90000499534A5B46002900F0818002EA0B01F9
:107AA000B1F1D66F7BDCB1F15C7F7FF7A9AE4D4BB6
:107AB000504659460022FEF7E5FF0B46034308BF38
:107AC000222382468B4608BF23602BE64FF0FF320D
:107AD00002FA03F303EA0A0AE3E6C8F17F4808F56D
:107AE0007F0808F57B4808F1E20801FA08F30893DB
:107AF0000D9146E70023089301230D9341E7189960
:107B00004246204601F09EF8189000287FF46BAFA3
:107B1000FEE55F466ED10B9ACBF3130342B3324AB4
:107B2000934228D1049B5146EBB12D4B3B40B3F11E
:107B3000D46F4FF0FF3219D81B0DC3F16B0302FA5B
:107B400003F3994217D1294B9F4202D101313FF4EF
:107B5000DFAD234B3B4003F5801B4FF0000A049B35
:107B6000002BA4D1DEE54FF0FF33EAE71346E8E748
:107B700053EA0A038CD0089BDBB13B42EFD00B9B4E
:107B8000049A50465946C3B1FFF75BFB02460B46C9
:107B900051EC180BFEF7C0FD82468B46DFE7134021
:107BA000A3F580136FEA135B6FEA0B5B4FF0FF3AAC
:107BB000D5E70D9B13EA0A0FE0E7FFF742FB024609
:107BC0000B4651EC180BFEF7A5FD00220023824660
:107BD0008B46FFF7BFF90028C1D011E602FCFFFF7A
:107BE0000000F07F00005039FFFF0F00FFFFEF7F24
:107BF00040950B003146284601F012FA59EC108BE3
:107C000010EE100A00224FF080434946FFF7B6F904
:107C100000287AD00B9B002B4AD0954B0022CDE94F
:107C20000823DFF84C924FF00008924B3B400D9335
:107C30000D9A914B9A4240F0B080DDE90801A7F11E
:107C4000547B4BEC10ABCDE9080101F011F9DDE9F3
:107C5000080153EC102BFEF715FF52465B46FEF76A
:107C60005BFD0B468349854A19409142824660D9A3
:107C700018EE903A02F15472934204D118EE103A81
:107C800001333FF445ADDFF800B24FF0FF3A1899E9
:107C9000204600F0BBFD0599204600F0B7FD3146B7
:107CA000204600F0B3FD2946204600F0AFFD1AE65D
:107CB000BAF1000F1BD1CBF31303F3B96C4B0022C5
:107CC00040464946FFF750F9D0B9404649466C4B0B
:107CD0000022FEF7D7FE8046894609F10043CDF821
:107CE00050801593DDE91423CDE908239DE7BAF10F
:107CF000010F02D1002F3FF483AD624B00228EE7CB
:107D0000DFF87C914FF00008E7E75D4B40464946BD
:107D10000022FEF7B7FE0B9B8046894633B901F17E
:107D200000430E900F93DDE90E23DDE7CDE90E89C8
:107D3000F9E703F1547B049B002BA8D12BF00043FF
:107D40000D9A1B0D1B059A42A1D14046494601F0F0
:107D500005FAFEF769FE02460B4640464946FEF725
:107D6000D9FC0B9ACBF3130343EA0A03134380466F
:107D7000894655D036A3D3E90023FFF7F5F800284C
:107D80007FF4D0AC34A3D3E9002340464946FFF743
:107D900009F900283FF47BAFC4E4049B33B30D9B87
:107DA000B3F1D46F22D82EA3D3E90023404649462D
:107DB000FFF7E4F8A0B149464046FFF73BF9012838
:107DC00038BF0120FEF7E4FD0B9B8046894623BBAC
:107DD00001F1004310901193DDE91023CDE9082350
:107DE000099B0D9A03F1D6639B1A0993DDE90801FB
:107DF000B0EE480AF0EE680ACDE9080101F038F863
:107E0000DDE9080153EC102BFEF73CFE53EC182B78
:107E1000FEF782FC82468B468DE7CDE91089DBE7D1
:107E200011A3D3E90023FFF79FF8B2E700230A93D9
:107E3000139A179B1360FFF76BBA652A3FF45FAB89
:107E4000452A3FF45CAB0123FFF794BBAFF30080FE
:107E50009535A094FFFFDF3F35E5AF350000E03FEB
:107E60000000C0FFFFFFDF419535A094FFFFCF3F2B
:107E70000000F03F0000F07F0000E07FFFFF9F7CEC
:107E80000000E03F0000F0BFFFFFEF7F0A46014621
:107E90000248034B0068FFF7F3B900BFA0E40320DA
:107EA0000CE50320012B2DE9F04701D0242B06D946
:107EB000FCF784FC162303600020BDE8F087DFF8A0
:107EC000E4C00D462E4615F8014B14F80C7017F05F
:107ED0000807F7D12D2C32D12C780127B51C002BA7
:107EE0005BD0102B09D1302C07D12C7804F0DF04A3
:107EF000582C4DD16C781023023507F1004808F159
:107F0000FF384FF0000CB8FBF3F9664603FB198A03
:107F1000A4F1300EBEF1090F16D87446A34224DD39
:107F2000BCF1000F1EDBB1451CD301D1A24519DB0A
:107F300006FB03464FF0010C15F8014BE8E72B2C2C
:107F400004BF2C78B51CCAE7A4F1410EBEF1190F8D
:107F500001D8373CE2E7A4F1610EBEF1190F04D855
:107F6000573CDBE74FF0FF3CE6E7BCF1000F05DADA
:107F700022230360464642B930469EE707B1764267
:107F8000002AF9D0BCF1000F00D0691E1160F3E7A0
:107F90003024002BB1D10823AFE7302CA5D00A2321
:107FA000ABE700BF69950B0013460A46014602483D
:107FB0000068FFF777BF00BFA0E403202DE9F84376
:107FC000DFF8B8800646D8F800001F460D469146F7
:107FD00000F0C6FB254B1C6834B9254C1C60254BB2
:107FE00013B11B68C4F8883063681F2B07DDD8F80D
:107FF000000000F0B7FB4FF0FF30BDE8F8834EB350
:10800000D4F8880088B91C4B23B9D8F8000000F0D8
:10801000A8FBF0E74FF48470FCF7A0FB0028F4D035
:108020000023C0E94033C4F88800636840F8239017
:1080300001229A4000EB8301D0F800311343C0F8CD
:108040000031022EC1F8807002BFD0F80431134312
:10805000C0F804316368D8F800005A1C023362602B
:1080600044F8235000F07EFB0020C6E7E8E7032039
:108070005CE70320000000005D470B0004E50320DF
:108080000369B3EB611F2DE9F0434FEA611200F180
:10809000140445DD11F01F0104EB830604EB820597
:1080A0000CD100F110072946B14234D39B1A9B0032
:1080B000EA1E964238BF0023234415E054F822708C
:1080C000C1F12008CF4005F1040EA1467645F446E3
:1080D00015D89A1A9200043A0135AE4238BF0022F0
:1080E000A318A75007B104331A1BA3424FEAA202F8
:1080F00008BF0023026108BF4361BDE8F083DCF8DC
:1081000000C00CFA08FC4CEA070749F8047B5EF84B
:10811000047BCF40DAE751F804CB47F804CFC3E73C
:108120002346E1E7A0F13003092B02D82038C0B282
:108130007047A0F16103052B01D84738F7E7A0F19C
:108140004103052B01D82738F1E7002070470000D4
:108150002DE9F04F2DED028B89B008EE100A049343
:10816000B44B1B68019318468B469046FFF739F8CD
:10817000019BDBF800200344824613F8013C059381
:10818000931CC2F1FF2202F57F02FE32D1181F4676
:1081900013F8010B00913028F8D0FFF7C3FF044615
:1081A00000283AD1019952463846FFF722F8054691
:1081B000002868D117F80A0007EB0A06FFF7B2FF9C
:1081C000002862D03346187830281F4603F1010397
:1081D000F9D0FFF7A7FF0123B0FA80F46409354610
:1081E00000933A46164601323078FFF79BFF00288D
:1081F000F8D1019952463046FEF7FBFF80B94DB9E0
:1082000006EB0A052A46164601323078FFF78AFF48
:108210000028F8D1AD1BAD0004E000242546E0E7BE
:10822000002DF7D1337803F0DF03502B3BD1737867
:108230002B2B2CD02D2B2ED0711C4FF00009087841
:10824000FFF770FF431EDBB2182B2CD8A0F11002F1
:1082500011F8010FFFF766FF431EDBB2182B1DD983
:10826000B9F1000F00D052421544CBF80010E4B130
:10827000009B002B14BF00270627384609B0BDEC31
:10828000028BBDE8F08F3E4625460124CAE74FF039
:108290000009B11CD3E74FF00109FAE70A2303FBF9
:1082A0000202103AD4E73146DFE7F31B013B2146D7
:1082B000072B0BDC18EE100A00F068FA044640B9F0
:1082C0005D4B0246DE215D48FCF780FA01315B1010
:1082D000EEE700F114094FF0000BCAF10103CDF8ED
:1082E0000890CDF800B00693B74240D30298009BA7
:1082F00040F8043BA0EB09008010460120611846BD
:1083000000F036FB301AD8F80060B04263DD871BFE
:108310003946204600F0DAFE8246A8B17B1E59118C
:1083200003F01F0259F821104FF0010A0AFA02F275
:108330000A4209D0534505DDB91E204600F0C6FEAD
:10834000002845D14FF0020A39462046FFF798FE33
:108350003D44D8F80830AB424CDA18EE100A2146FA
:1083600000F054FA149A00231360A32785E7731EC4
:10837000059A039316F8013C934219D0BBF1200FE4
:1083800007D1029B009A43F8042B02930023009329
:108390009B4616F8010CFFF7C5FE009B00F00F008E
:1083A00000FA0BF0034300930BF1040B039B0DE069
:1083B000039B069A1344BB42E0D3184601990793E6
:1083C0005246FEF716FF079B0028D7D11E468BE7C3
:1083D0004FF0030AB8E70ADA371A214618EE100AF6
:1083E0003A4600F02FFCED1B044600F114094FF053
:1083F000000AAEE7D8F80400A84272DD451BAE4281
:1084000036DCD8F80C30022B2AD0032B2CD0012BD1
:108410001CD1AE421AD1012E12D1049AD8F80430E0
:10842000136001232361C9F80030149B62271C608C
:1084300023E700BFDC960B0069960B007A960B00D1
:10844000711E204600F042FE0028E6D118EE100A08
:10845000214600F0DBF9149A0023136050270CE743
:10846000159B002BF2D1D8E7159B002BD5D1EDE75A
:108470006F1EBAF1000F31D127B13946204600F006
:1084800025FE82467B11012159F8233007F01F0792
:1084900001FA07F71F422946204618BF4AF0020A90
:1084A000761BFFF7EDFDD8F804500227BAF1000F54
:1084B00048D0D8F80C30022B15D0032B17D0012B45
:1084C00009D11AF0020F06D0D9F800004AEA000AD2
:1084D0001AF0010F0ED147F0100733E04FF0010AF8
:1084E000D0E70127E2E7159BC3F101031593159B24
:1084F000002BF0D0D4F810B004F114034FEA8B0A2B
:1085000003EB8B014FF0000C184653F8042BB2F12B
:10851000FF3F1CD001320260022F04F114033FD14F
:10852000D8F80020013AB2420AD17111012253F861
:10853000213006F01F0602FA06F61E4218BF174643
:1085400047F02007149B1C60049B1D6095E6994230
:1085500043F804CCD8D8A3689B4519DB616818EEB2
:10856000100A013100F012F9814618B91A4B02467F
:108570008421A8E62269023204F10C0192000C3039
:10858000FEF7A8FD214618EE100A00F03FF94C4610
:1085900023695A1C04EB8303226101225A61BBE761
:1085A00022695A450BDD01212046FFF769FDD8F805
:1085B00008300135AB42FFF6D0AE0127C0E716F018
:1085C0001F06FAD05344C6F1200653F8040C00F0FD
:1085D000CFF9B042E7DBF0E769960B00C2F1080281
:1085E000920070B5C2F120064368046803FA06F5EC
:1085F0002C43D340046040F8043F8842F4D370BD5C
:1086000030B50368013311F8014B14B90360012040
:1086100030BD13F8012BA2F14105192D98BF20326E
:10862000A242F0D00020F3E72DE9F04F0B685E1175
:1086300002EB860613F01F0387B018BF043600252F
:10864000371F904602680193824646F8045CB9469B
:108650003C460295AB465178531C039341B3084600
:1086600005920491FFF75EFD00284FD10499059A09
:10867000202918D8029B9B4513DD4C4506D2072DB7
:1086800004DC2A4649462046FFF7A8FF444550D956
:108690000023A4F1040944F8043CCDF808B04C468A
:1086A0001D46039AD7E7292956D10232CAF800207D
:1086B000BBF1000F50D04C4506D2072D04DC2A46F2
:1086C00049462046FFF78AFF444534D9A8F1040201
:1086D000234653F8041B42F8041F9F42F9D23B1B68
:1086E00023F0030304330134033EB44288BF042360
:1086F0004344002243F8042B9F42FBD23B681BB942
:10870000474527D101233B60052026E00135082D90
:108710000BF1010B06DD4445C3D9002344F8043CAA
:108720000125043C226800F00F0040EA021222609A
:10873000B7E70825B5E7019B002BDFD04FF0FF32EC
:10874000C3F1200322FA03F356F8042C1A4046F82A
:10875000042CD3E7043FD1E7042007B0BDE8F08F35
:1087600070477047704782B001B901A942B14BB15F
:1087700013780B601278101E18BF012002B07047EA
:108780001046FBE76FF00100F8E7000070B5466A9D
:1087900004460D4676B91020FBF7E0FF0246606202
:1087A00020B9184B18486621FCF710F8C0E901669B
:1087B0000660C660666AF36883B1636ADB6853F873
:1087C0002500B8B9012101FA05F6721D9200204674
:1087D00000F09DFC60B1C0E901560EE021220421A9
:1087E000204600F094FC636AF060DB68002BE4D163
:1087F000002070BD026843F825200023C0E9033340
:10880000F7E700BF9D940B00F0960B0070B5466A29
:1088100005460C4676B91020FBF7A0FF02466862B9
:1088200020B9094B09488A21FBF7D0FFC0E901664E
:108830000660C6603CB16B6A6268DB6853F8221060
:10884000216043F8224070BD9D940B00F0960B0010
:108850002DE9F0410D6907460C461E4601F1140C46
:108860000020DCF8003099B202FB01611E0C0B0CF9
:1088700002FB063389B2013001EB034185424CF81B
:10888000041B4FEA1346ECDC0EB3A368AB4219DCC1
:10889000616838460131FFF779FF804628B9024602
:1088A0000C4B0D48B521FBF791FF2269023204F110
:1088B0000C0192000C30FEF70DFC21463846FFF704
:1088C000A5FF444604EB850301355E612561204622
:1088D000BDE8F08169960B00F0960B002DE9F84396
:1088E0000C4615461F4609220833064693FBF2F351
:1088F000002101229A4209DB3046FFF747FF40B9C9
:108900000246194B1948CE21FBF760FF5200013196
:10891000F0E7089B4361092D4FF00103036116DD69
:1089200004F10909C8462C4418F8013B0146303BC4
:108930000A223046FFF78CFFA045F5D1A5F10804C7
:108940004C442D1B6319BB4204DBBDE8F8830A3499
:108950000925F6E714F8013B0146303B0A22304670
:10896000FFF776FFEEE700BF69960B00F0960B006D
:10897000030C1B04D3B90004102310F07F4F04BF75
:108980000002083310F0704F04BF0001043310F0F0
:10899000404F04BF80000233002805DB10F0804FF9
:1089A00003F1010308BF2023184670470023E4E7C2
:1089B000036813F0070201460BD0DA0723D49807A7
:1089C00049BF5B089B0801200B605CBF0B60022065
:1089D000704798B2A8B91B0C1020DAB20AB9083057
:1089E0001B0A1A0704BF1B0904309A0704BF9B081F
:1089F0000230DA0703D45B0800F1010005D00B60F8
:108A000070471046E9E700207047202070470000BB
:108A100010B50C460121FFF7B9FE024628B9054BF7
:108A200005484FF4A071FBF7D1FE012344610361B7
:108A300010BD00BF69960B00F0960B002DE9F04FBA
:108A400091460A69D9F810309A42B8BF0B460C46D5
:108A5000BCBF4C4699462769D9F810A0A368616845
:108A600007EB0A06B34285B0B8BF0131FFF78EFEAF
:108A700030B90246444B454840F25D11FBF7A6FE73
:108A800000F1140505EB86082B460022434521D34F
:108A900004F1140303EB870709F1140303EB8A02C3
:108AA00002923A1B153A22F00302043204F1150136
:108AB0008F4238BF04220192029A03939A420CD843
:108AC000002E03DD58F8043D002B5AD0066105B096
:108AD000BDE8F08F43F8042BD8E7B3F800A0BAF153
:108AE000000F24D004F1140EA9464FF0000C5EF8DC
:108AF000042BD9F800101FFA82FB89B20AFB0B1174
:108B00004FEA124BD9F8002061444FEA124C0AFB9D
:108B10000BC202EB114289B241EA0241774549F8A2
:108B2000041B4FEA124CE2D8019A45F802C0039A9E
:108B3000B2F802900433B9F1000F20D0296804F193
:108B4000140CAE464FF0000ABCF800B0BEF802208C
:108B500009FB0B22924489B241EA0A414EF8041BF8
:108B60005CF8042BBEF80010120C09FB021101EB9B
:108B70001A4167454FEA114AE6D8019AA9500435CF
:108B80009AE7013E9CE700BF69960B00F0960B0048
:108B90002DE9F843154612F0030206460F4607D0AA
:108BA000254C013A002354F82220FFF751FE0746D6
:108BB000AD103DD0746A7CB91020FBF7CFFD0246A2
:108BC000706228B91D4B1E484FF4D771FBF7FEFDAC
:108BD000C0E901440460C460D6F82480D8F8084095
:108BE0004CB940F271213046FFF712FF0023C8F85C
:108BF0000800044603604FF00009EB070AD5394628
:108C000022463046FFF71AFF394680463046FFF7C6
:108C1000FDFD47466D100BD0206838B9224621462D
:108C20003046FFF70BFF2060C0F800900446E4E7F1
:108C30003846BDE8F88300BF40980B009D940B00B8
:108C4000F0960B002DE9F0470C464968236903EBC9
:108C50006218A368074691464FEA621A08F10106B6
:108C6000B3420BDB3846FFF791FD054648B9024693
:108C70002A4B2B4840F2D911FBF7A8FD01315B00CC
:108C8000EEE7002300F1140100F1100218465345ED
:108C900037DB20692AEAEA7A04F1140319F01F0984
:108CA00001EB8A0103EB80002FD0C9F1200E8A4628
:108CB0004FF0000C1A6802FA09F242EA0C024AF874
:108CC000042B53F8042B984222FA0EFCF2D8031B13
:108CD000153B23F00303043304F11502904238BF1F
:108CE000042341F803C0BCF1000F01D008F10206D3
:108CF000013E38462E612146FFF788FD2846BDE833
:108D0000F08742F8040F0133C1E7043953F8042B0C
:108D100041F8042F9842F9D8EAE700BF69960B00A2
:108D2000F0960B0030B502690C69121B0ED100F1F0
:108D30001403143103EB840001EB840150F8045D4B
:108D400051F8044DA54203D005D30122104630BD91
:108D50008342F3D3FAE74FF0FF32F7E72DE9F84FFC
:108D60000C460646114620469046FFF7DBFF051EDF
:108D700010D129463046FFF709FD30B93A4B02467B
:108D800040F232213948FBF721FD0123C0E90435C7
:108D9000BDE8F88FA4BF4346A0463046D8F804107B
:108DA000A6BF1C4600250125FFF7F0FC20B92E4B7D
:108DB00002464FF41071E5E7D8F810702669C560D7
:108DC00004F1140908F1140500F1140E05EB870CE9
:108DD00009EB860608F11002F246002159F8043B1F
:108DE00052F804BF1FFA83F811FA8BF11B0CA1EBA8
:108DF0000808C3EB1B4303EB28431FFA88F8191438
:108E00004E4548EA03434AF8043BE7D8331B153B79
:108E100023F0030304331534A64238BF04231D4452
:108E200073449E462E4666450ED30CF10302521B38
:108E300022F00302033DAC4538BF00221A4452F829
:108E4000043D7BB10761A3E756F8048B11FA88F261
:108E5000141404EB184492B242EA04424EF8042B74
:108E60002114E0E7013FEAE769960B00F0960B005A
:108E700082B08DED000B019B12491940A1F1507198
:108E8000002905DD00220B4643EC102B02B0704791
:108E90004942B1F1A07F4FEA21504FF000024FF05C
:108EA000000304DA4FF4002141FA00F3ECE7A0F1EB
:108EB00014011E29DABF4FF0004020FA01F1012110
:108EC0000A46E1E70000F07FF8B5056900F11407F4
:108ED00007EB85052E1F55F8044C2046FFF748FD8B
:108EE000C0F120030A28DFF87CC00B6014DCC0F15D
:108EF0000B0E24FA0EF1B74241EA0C0334BF55F8C9
:108F0000081C0021153004FA00F021FA0EF140EAA5
:108F1000010243EC102BF8BDB7423ABF55F8081CCC
:108F2000A5F1080600210B3817D0C0F1200C04FA77
:108F300000F5BE4221FA0CF445EA04058CBF56F850
:108F4000044C002445F07F5301FA00F024FA0CF49D
:108F500043F4401340EA0402DBE744EA0C030A4608
:108F6000D7E700BF0000F03F2DE9F7438946012114
:108F700057EC106B9046FFF709FC044630B90246E7
:108F8000254B264840F20A31FBF720FCC7F30A556F
:108F9000C7F3130335BB002E019328D06846009613
:108FA000FFF706FD009900B3019AC0F1200302FA11
:108FB00003F30B43C24063610192019BA361002B49
:108FC00014BF022201222261D5B1A5F23345054426
:108FD000C9F80050C0F13500C8F80000204603B0C1
:108FE000BDE8F08343F48013D5E76161E5E701A8AC
:108FF000FFF7DEFC019B6361012222612030E3E781
:1090000004EB8203A0F23240C9F800001869FFF7B0
:10901000AFFCC0EB4210DFE769960B00F0960B0047
:109020002DE9F74F884669468146FFF74DFF01A9B4
:10903000404655EC104BFFF747FFD9F81030D8F8F1
:109040001020A3EB020CDDE900329B1A03EB4C135A
:1090500051EC100B002BD6BF0A462A46C3EB033354
:109060008B462F46D4BF02EB035B02EB035720462F
:1090700010EE102A5B463946FDF72EFE41EC100B30
:1090800003B0BDE8F08F013970B5491114690131A1
:1090900002F1140300EB810103EB8404051FA342DA
:1090A0000CD3A31A113B23F003031132A24288BF51
:1090B000002318440023884205D370BD53F8046B85
:1090C00045F8046FEBE740F8043BF4E700F11402C5
:1090D00000694B11984210B511DB0ADD11F01F0138
:1090E00007D052F8234024FA01F000FA01F18C4233
:1090F0000BD102EB8303934203D8002010BD03463B
:10910000F7E753F8041D0029F5D00120F6E713B561
:109110004A4311460192FBF749FB044618B1019AF4
:109120000021FDF7FFFF204602B010BD0000000047
:109130009FED010B704700BF000000000000F87FAA
:1091400049B1FF2A85BF8A2303600A704FF0FF30C0
:1091500098BF0120704708467047000038B50022CC
:10916000002304460D46FDF7FFFE28B92046294698
:10917000BDE83840FDF77EBF204605F10041FDF710
:1091800079FF404261EB410138BD00BF21400B0037
:109190005D400B0085400B0089400B000000000083
:1091A00043616C6C206F6E207075726520766972F9
:1091B0007475616C0041636300252A732025367342
:1091C00020255B5E2C5D202C20252A7320253673FC
:1091D00020252A7320252A732025367320252A73FB
:1091E00020252A7320253673004576656E7420414C
:1091F0006363756D756C6174696F6E3A2000546FAE
:1092000074616C20416363756D756C6174696F6E18
:109210003A20004950483A2000204950480A0000AE
:10922000000000000000000000000000000000003E
:10923000A5400B00CD400B00000000000000000026
:10924000D9400B000D410B004D590B00CF400B00D6
:109250000000000000000000BF480B00B5480B00F4
:10926000AB480B00A1480B0095480B0089480B0048
:10927000A55C0B00AD5C0B007D480B0075480B0036
:109280006B480B0061480B00DD5C0B000000000028
:1092900000000000ED480B00DD480B00DF480B002C
:1092A0002564002575007525303478006261756489
:1092B0000053657269616C0053657269616C3100BD
:1092C0004A534F4E53747265616D4C6F6748616EBF
:1092D000646C65720061707000253031307520005B
:1092E0005D20002C200028293A2000205B00636FBD
:1092F0006465203D200025690064657461696C73B4
:10930000203D20000D0A006D006C6E00666E00743A
:1093100000636F64650064657461696C000000003F
:109320000000000000000000994D0B00BF4D0B0035
:109330007D4D0B00FB490B00000000000000000009
:10934000F5510B000D520B004D590B00CF400B0097
:10935000000000000000000021520B0035520B00FD
:10936000F15A0B00854D0B000000000000000000CA
:10937000974D0B00CD4D0B00B1580B00874D0B00E6
:109380000000000000000000954D0B00DB4D0B00BD
:109390005D510B00FD4D0B000000000000000000BF
:1093A000655C0B006F5C0B00795C0B00835C0B0051
:1093B0008D5C0B00995C0B00A55C0B00AD5C0B0099
:1093C000B55C0B00C15C0B00C95C0B00D35C0B00EF
:1093D000DD5C0B006E616E00696E66006F76660084
:1093E0002E0025592D256D2D25645425483A254DEF
:1093F0003A2553257A0061736374696D6500000036
:10940000000000000000000001630B006D630B0012
:1094100045630B00C95D0B0015630B0031630B0046
:1094200023630B003F630B0003630B0007630B0018
:109430000000000000000000C5630B002D640B005D
:1094400003640B00C95D0B00F5630B00C7630B00E1
:10945000D7630B0027640B00E7630B00BF630B00AF
:1094600000000000000000002F650B0025650B00C8
:109470001B650B00D1640B000F650B0003650B002F
:10948000A55C0B00AD5C0B00F7640B00EF640B00F8
:10949000E5640B00DB640B00DD5C0B00005245450E
:1094A0004E54206D616C6C6F6320737563636565EA
:1094B000646564002F746D702F6A656E6B696E73DE
:1094C0002D4743432D31302D706970656C696E6591
:1094D0002D34385F32303230313132345F31363012
:1094E000363138303633392F7372632F6E65776CAF
:1094F00069622F6E65776C69622F6C6962632F7386
:1095000074646C69622F72616E642E6300696E69A7
:109510007479000035000000CEFBFFFFCB03000094
:10952000010000000000000034000000CEFBFFFF3F
:10953000CB0300000100000000000000000000005C
:10954000BC89D897B2D29C3C33A7A8D523F6493919
:109550003DA7F444FD0FA5329D978CCF08BA5B253B
:10956000436FAC64280668110020202020202020B2
:1095700020202828282828202020202020202020C3
:1095800020202020202020202088101010101010D3
:10959000101010101010101010040404040404041F
:1095A00004040410101010101010414141414141B9
:1095B000010101010101010101010101010101019B
:1095C00001010101101010101010424242424242AB
:1095D000020202020202020202020202020202026B
:1095E0000202020210101010200000000000000013
:1095F000000000000000000000000000000000006B
:10960000000000000000000000000000000000005A
:10961000000000000000000000000000000000004A
:10962000000000000000000000000000000000003A
:10963000000000000000000000000000000000002A
:10964000000000000000000000000000000000001A
:10965000000000000000000000000000000000000A
:1096600000000000000000000042616C6C6F63208D
:10967000737563636565646564002F746D702F6A2C
:10968000656E6B696E732D4743432D31302D7069C4
:1096900070656C696E652D34385F3230323031312F
:1096A00032345F313630363138303633392F7372D9
:1096B000632F6E65776C69622F6E65776C69622FB8
:1096C0006C6962632F7374646C69622F6764746F72
:1096D000612D6765746865782E630000E0930B0068
:1096E00006930B0008E503204300504F53495800F0
:1096F0002F746D702F6A656E6B696E732D474343CF
:109700002D31302D706970656C696E652D34385F50
:1097100032303230313132345F31363036313830F8
:109720003633392F7372632F6E65776C69622F6ED3
:1097300065776C69622F6C6962632F7374646C69FE
:10974000622F6D707265632E6300000000000000E0
:109750000080E03779C34143176E05B5B5B893462D
:10976000F5F93FE9034F384D321D30F94877825AF9
:109770003CBF737FDD4F1575000000000000F03F17
:1097800000000000000024400000000000005940DC
:109790000000000000408F40000000000088C3402F
:1097A00000000000006AF8400000000080842E41A4
:1097B00000000000D01263410000000084D79741F0
:1097C0000000000065CDCD41000000205FA00242F6
:1097D000000000E876483742000000A2941A6D426B
:1097E000000040E59C30A2420000901EC4BCD6425E
:1097F00000003426F56B0C430080E03779C3414309
:1098000000A0D8855734764300C84E676DC1AB437E
:10981000003D9160E458E143408CB5781DAF15449C
:1098200050EFE2D6E41A4B4492D54D06CFF0804477
:10983000F64AE1C7022DB544B49DD9794378EA448C
:1098400005000000190000007D00000081430B00AE
:1098500051480B00C9480B003D590B00B55D0B008A
:1098600089600B00C9620B00ED620B0039650B00CB
:10987000040000001400000003000000474E5500E3
:10988000EB940CD0BE79E82FAD0F2FC66752BFA462
:049890009B9A7FF030
:0498940000000000D0
:1098980070930B0088930B00F6930B00A4E403204D
:1098A80000000000000000000000000000000000B0
:1098B80000000000000000000000000000000000A0
:1098C8000000000000000000000000000000000090
:1098D8000000000000000000000000000000000080
:1098E8000000000000000000000000000000000070
:1098F8000000000000000000000000000000000060
:10990800ECE70320FF000000430000000000000017
:10991800000000000000000000000000000000003F
:1099280000000000000000004300000000000000EC
:10993800000000000000000000000000000000001F
:1099480000000000000000004300000000000000CC
:1099580000000000000000000000000000000000FF
:1099680000000000000000004300000000000000AC
:1099780000000000000000000000000000000000DF
:10998800000000000000000043000000000000008C
:1099980000000000000000000000000000000000BF
:1099A800000000000000000043000000000000006C
:1099B800000000000000000000000000000000009F
:1099C800000000000000000043000000000000004C
:1099D800000000000000000000000000000000007F
:1099E800000000000000000041910B0067870B0099
:1099F8000000000068950B00E0930B0006930B0035
:109A080006930B0006930B0006930B0006930B00BE
:109A180006930B0006930B0006930B0006930B00AE
:109A2800FFFFFFFFFFFFFFFFFFFFFFFFFFFF00003C
:109A380001004153434949000000000000000000B4
:109A4800000000000000000000000000000000000E
:109A58000000415343494900000000000000000095
:109A680000000000000000000000000000000000EE
:049A780000000000EA
:109A7C00FFFFFFFF00000102030405060708090AA7
:109A8C000B0C0D0E0F101112131415161718191AA2
:089A9C001B1C1D1E1F202800E9
:049AA40078563412AA
:04000003B0004020E9
:00000001FF
