:02000002B0004C
:1040000000400B00BC850B00000006000C00050200
:084010000401E60C00000000B1
:04401800B47D0B0068
:1040200009480A49884208B505D0094A824202D0A7
:10403000121A01F020FF0748074A0021121A01F066
:1040400028FF014808BD00BFE0E40320B8830B004F
:10405000BCE60320BCE60320EDE7032070B5074E65
:10406000074C01F0A3F9A41BA4080025AC4200D121
:1040700070BD56F8043B98470135F7E76C830B0099
:1040800090830B0000F024B808B500F04BF8BDE8B1
:10409000084001F043B900F049BA00F047BA00F017
:1040A0004DBA0078B0FA80F04009704701230370E0
:1040B0007047000013B5054B1B788DF800303C238A
:1040C000044600F0D9FB204602B010BDC8E603202C
:1040D00008B501F0B9F900224FF4165101F036F895
:1040E00001F0B2F9632101F035F801F0ADF9BDE856
:1040F00008400A2101F02EB838B5046805467CB1A5
:104100006368013B63605BB9236820469B689847FE
:10411000A368013BA3601BB923682046DB6898476E
:10412000284638BD70B596B001F08EF90A220146D6
:104130000EA800F0E3FE334912A800F042FF12A9D6
:104140000EA800F08CFF044612A800F0EFFE002C31
:104150004FD00CAC0AAD08AE06AA05AB2A490E98A2
:1041600002940195009600F0F9F906A801F080FE8E
:1041700051EC100B01F008FE244B1860304601F0A2
:1041800077FE51EC100B01F0FFFD214B1860284623
:1041900001F06EFE51EC100B01F0F6FD1D4B1860A6
:1041A000204601F065FE51EC100B01F0EDFD1A4BBD
:1041B0001A49186006AA12A8FFF77CFF13A8FFF798
:1041C0009BFF1749324612A8FFF774FF13A8FFF7A9
:1041D00093FF14492A4612A8FFF76CFF13A8FFF7B4
:1041E0008BFF12A810492246FFF764FF13A8FFF7C0
:1041F00083FF40F6B83000F0D9F90EA800F096FE23
:1042000016B070BDC87D0B00CC7D0B00CCE6032042
:10421000D0E60320D8E60320D4E60320F87D0B0087
:10422000097E0B00277E0B003C7E0B000A4B0B4ADD
:1042300010B500241C700A4B0220C3E900449A60A8
:1042400000F0C0F82146012000F0CCF8BDE8104095
:104250000121042000F00EB8C8E603200000FFFF93
:10426000BCE6032008B5024B1B685B6C019308BDDC
:104270004802030008B5024B1B685B6E019308BD42
:104280003402030008B5024B1B685B68019308BD4C
:104290001802030008B5024B1B685B69019308BD57
:1042A0001802030008B5024B1B685B69019308BD47
:1042B0006402030008B5024B1B689B68019308BDAC
:1042C0006802030008B5024B1B68DB68019308BD58
:1042D0006802030008B5024B1B68DB68019308BD48
:1042E0003C02030008B5024B1B681B69019308BD23
:1042F0003C02030008B5024B1B685B69019308BDD3
:104300003C02030008B5024B1B689B69019308BD82
:104310003C02030008B5024B1B68DB69019308BD32
:104320003C02030008B5024B1B689B6A019308BD61
:104330003C02030008B5024B1B68DB6A019308BD11
:104340003C02030008B5024B1B681B6B019308BDC0
:104350003C02030008B5024B1B681B6C019308BDAF
:104360003C02030008B5024B1B681B68019308BDA3
:104370004C02030008B5024B1B681B69019308BD82
:104380004C02030008B5024B1B685B69019308BD32
:104390004C02030008B5024B1B689B69019308BDE2
:1043A0004C02030008B5024B1B68DB69019308BD92
:1043B0004C02030008B5024B1B681B6A019308BD41
:1043C0004C02030008B5024B1B685B68019308BDF3
:1043D0002002030008B5024B1B685B69019308BD0E
:1043E0002002030008B5024B1B68DB6A019308BD7D
:1043F0002002030008B5024B1B68DB6C019308BD6B
:104400002002030008B5024B1B685B6D019308BDD9
:104410002002030008B5034B1B68D3F888300193D2
:1044200008BD00002002030008B5034B1B68D3F849
:104430009430019308BD00002002030008B5024B30
:104440001B685B69019308BD4402030008B5024B79
:104450001B681B6A019308BD4402030008B5024BA8
:104460001B68DB6B019308BD4402030008B5024BD7
:104470001B685B68019308BD4002030008B5024B4E
:104480001B689B68019308BD4002030008B5024BFE
:104490001B68DB68019308BD4002030008B5024BAE
:1044A0001B681B69019308BD4002030008B5024B5D
:1044B0001B685B69019308BD4002030008B5024B0D
:1044C0001B689B69019308BD4002030008B5024BBD
:1044D0001B68DB69019308BD4002030008B5024B6D
:1044E0001B681B6A019308BD4002030008B5024B1C
:1044F0001B681B6B019308BD4002030008B5024B0B
:104500001B685B6B019308BD4002030008B5024BBA
:104510001B681B6C019308BD4002030008B5024BE9
:104520001B685B6C019308BD4002030008B5024B99
:104530001B681B68019308BD1C02030008B5024BF1
:104540001B685B68019308BD1C02030008B5024BA1
:104550001B689B68019308BD1C02030008B5024B51
:104560001B685B69019308BD1C02030008B5024B80
:104570001B68DB6A019308BD1C02030008B5024BEF
:104580001B681B6B019308BD1C02030008B5024B9E
:104590001B681B6C019308BD1C02030008B5024B8D
:1045A0001B685B6C019308BD1C0203000021FFF730
:1045B00011BF10B5836804460BB900F06BFFC368E8
:1045C0009847A3681BB103222146204698472046FE
:1045D0001021BDE81040FFF762BD10B583680446A6
:1045E00013B1032201469847204610BD13B50B4670
:1045F0000246D0E900016C4684E8030093E803001A
:1046000082E8030094E8030083E8030002B010BDD1
:10461000024800230360FFF725BE00BFDCE603204D
:1046200070470020704710B510210446FFF737FD92
:10463000204610BD08B5FFF7F6FF08BD30B50022D3
:104640004FF69C74026084808D888C800C68858015
:1046500004600A6030BD10B504460068FFF76EFFC5
:10466000204610BD38B5C468F4B12378022B03D1BD
:1046700004F10C00FFF7EFFF656835B12846FFF73E
:10468000ACFF10212846FFF70AFDA56835B1284682
:10469000FFF7A3FF10212846FFF701FD2046142154
:1046A000BDE83840FFF7FBBC38BD0B6803604B68C2
:1046B000436013B15A6801325A60704737B50446F7
:1046C00068460D46FFF7F1FF009B019A2360626088
:1046D000002301A801930093FFF70EFD35B1281DBB
:1046E000FFF70AFD08212846FFF7D9FC204603B052
:1046F00030BD826810B50AB900F0CCFEBDE81040AC
:10470000C368184708B5006800F11001FFF7F1FF12
:1047100008BD826810B50AB900F0BCFEBDE81040C3
:10472000C368184708B5006800F11001FFF7F1FFF2
:1047300008BD000038B500230446036010200D4674
:10474000FFF7A9FC28B10123C0E90133024B036044
:10475000C5602060204638BD5C7E0B0038B5002364
:1047600083608B6804460D462BB102229847EB68A4
:10477000E360AB68A360204638BD0000F0B589B0A7
:1047800004686846FFF75AFF4FF00203D4E84F2F42
:10479000002A03D1C4E8413F0029F7D125D104F113
:1047A0000C0569462846FFF749FFBFF35B8F0123DD
:1047B0006370002004F10803BFF35B8F53E8006FC0
:1047C00043E80002002AF9D1BFF35B8F6EB1FFF717
:1047D00011FE78B129463046FFF78BFF3046FFF7D0
:1047E000FCFE10213046FFF75AFC6846FFF733FF06
:1047F00009B0F0BD314602A8FFF7B0FFE068B4F998
:10480000105008B101F084FB06901020ADF81C5048
:10481000FFF741FC0546E8B1002787601820FFF745
:104820003AFC044688B10146876002A8FFF7DEFE25
:10483000049BA268A360059B049206A9E268E3605A
:1048400004F110000592FFF7F9FE084BEB60084BEE
:104850002C60AB6006A8FFF7FEFE02A8FFF7BDFEC6
:10486000002229460348FFF7CDFDB7E705470B00B7
:1048700089490B00B3450B002DE9F04F8BB005467D
:104880009DF850A00F4690469946FFF7D7FD07AE1A
:10489000834638BB4FF62E73059005A93046ADF818
:1048A0001830FFF7CBFE1420FFF7F5FB044648B1A4
:1048B000022303700123C0E901BB437031460C3071
:1048C000FFF7BCFE2846214640F8044BFFF732FFB5
:1048D0003046FFF7C0FE05A8FFF7BDFE28460BB027
:1048E000BDE8F08F0C2300241420CDE90844079381
:1048F000FFF7D1FB014618B1C0E9014404704470D0
:1049000004A80391FFF716FF1E4B08930820FFF73A
:10491000C2FB044610B103A9FFF7C7FE00965FFA79
:104920008AF34A46414638460994FFF78FFDB8B9E5
:10493000039B5B7803F0FF0293B94FF69C7305A9C4
:1049400003A80592ADF81830FFF718FF05A8FFF788
:1049500082FE05A80999FFF7B1FE06A8FFF7CCFB78
:1049600003A905A8FFF7A1FE059B069A2B606A60C4
:10497000002306A806930593FFF7BEFB04A8FFF7E4
:10498000BBFBABE7054A0B00012AF8B5054603D18E
:104990000B6803600020F8BD022A10D0032AF9D169
:1049A0000468002CF6D004F11000FFF754FE2046F6
:1049B000FFF713FE18212046FFF771FBEAE71820E6
:1049C0000E68FFF768FB044650B13146FFF7C6FE9C
:1049D0003069B6F9147008B101F09AFA2061A78223
:1049E0002C60D7E738B5002383608B6804460D46FA
:1049F0002BB102229847EB68E360AB68A3602046C6
:104A000038BD0000F0B589B004460D4601A8114636
:104A1000FFF754FEA4B124B21DB1284601F078FA84
:104A2000054601A803A90395ADF81040FFF7A6FEBF
:104A300003A8FFF710FE02A8FFF75EFB09B0F0BD68
:104A4000019D0123D5E84F2F002A03D1C5E8413F3E
:104A50000029F7D1EFD12B73BFF35B8F6B702B1D48
:104A6000BFF35B8F53E8006F43E80042002AF9D19F
:104A7000BFF35B8F002EDED02046FFF7BBFC07465E
:104A800060B105F10C013046FFF743FE3046FFF7F9
:104A9000A4FD10213046FFF702FBCCE7314603A806
:104AA000FFF7A0FF2B7B8DF81C301020FFF7F3FAE7
:104AB0000546D0B187601420FFF7EDFA044678B1BF
:104AC0008760014603A8FFF791FD059BA268A360DC
:104AD000069B0592E268E3609DF81C300692237401
:104AE000064BEB60064B2C60AB6003A8FFF775FD2F
:104AF000002229460348FFF785FCC7E725470B003E
:104B0000094B0B00B3450B00012A70B5044603D1D5
:104B10000B680360002070BD022A0CD0032AF9D173
:104B20000468002CF6D02046FFF757FD14212046DC
:104B3000FFF7B5FAEEE714200E68FFF7ACFA05466A
:104B400020B13146FFF74EFF337C2B742560E1E73F
:104B5000002240681146FFF7C1BC002240681146A0
:104B6000FFF7CCBC40680022FFF7C0BC40680022C1
:104B700081F00101FFF7AABC002340681A461946DC
:104B8000FFF79CBC002340681A461946FFF78EBC0D
:104B9000002240681146FFF781BC002240681146A0
:104BA000FFF76CBC406800220221FFF76FBC0023B6
:104BB00040681A46FFF75ABC024B03225A60024A69
:104BC0001A607047E0E60320787E0B00704710B54E
:104BD00018210446FFF763FA204610BDF0B5037DA7
:104BE000062B8DB00E4600F104074FF0000412D0E2
:104BF00000F1080515F8011D0A22304600F043F9BE
:104C0000AF42044419D0002CF4D02E21304600F0DD
:104C100037F90444EEE72F236A4639460A208DF817
:104C20000040FFF73FFB684601F08FF9336802460A
:104C3000DB68694630469847044620460DB0F0BD13
:104C400010B5054B0446112240F8043B002101F049
:104C500020F9204610BD00BFB47E0B000346074A72
:104C600010B543F8042B01F1100251F8044B43F83E
:104C7000044B9142F9D10A781A7010BDB47E0B0032
:104C800010B59DF8084044EA032343EA024242EA91
:104C9000016104234160037510BD000007B5064B98
:104CA0000360CB7800938B784A780978FFF7E8FFA8
:104CB00003B05DF804FB00BFB47E0B00014B024A59
:104CC0001A607047E8E60320C07E0B0000234068AE
:104CD0001A46FFF7CBBB406800220221FFF7D6BB84
:104CE000002240681146FFF7C9BB00224068114608
:104CF000FFF7D4BB002340681A461946FFF7D6BB1E
:104D0000002340681A461946FFF7D8BB40680021C7
:104D1000FFF7FCBB40680021FFF700BC40680022A1
:104D200081F00101FFF7D2BB40680022FFF7DEBB34
:104D3000002240681146FFF7E1BB0022406811469F
:104D4000FFF7CCBB2DE9F04395B014460D4607465E
:104D5000FFF776FF00211C220DA8009101F099F8C1
:104D600040230C9320466B460CAA0021FFF7AAFAB9
:104D7000044600284BD1024601216868FFF78EFBEC
:104D80000221804622466868FFF788FB009E814624
:104D90002146002E3BD0002939D17368022B03D065
:104DA0000A2B11D0F669F4E7B8F1000FFAD0716957
:104DB00006A8043107ADFFF771FF0FCD3C1D0FC4EE
:104DC0002B6823704146EDE7B9F1000FEAD0746912
:104DD000102201A801F05DF806238DF8143001AD12
:104DE00004F108031834186859682A4603C20833C6
:104DF000A3421546F7D101A906A807ADFFF72EFF7C
:104E00000FCD3C1D0FC42B6823704946CAE700989C
:104E1000FFF750FA384615B0BDE8F083024B034A5D
:104E20001A6000225A607047ECE60320CC7E0B002B
:104E3000F8B506460D468F180024BD420CD03368E5
:104E400015F8011B9B6830469847031E01DB1C4484
:104E5000F3E7002C08BF1C462046F8BD13B50446F6
:104E6000084659B1019101F070F823680199DB6897
:104E70000246204602B0BDE81040184702B010BDFF
:104E800003689B68184730B58BB00023012A8DF862
:104E9000243098BF0A2209AC0D46B1FBF2F101FBA8
:104EA000125303F0FF03092B94BF30333733DBB2C7
:104EB000AA4204F8013DEFD92146FFF7CFFF0BB01E
:104EC00030BD0000014B00229A607047F4E60320D9
:104ED00010B50446FFF7DEF9E060236820465B6901
:104EE0009847002808DAFFF7D5F9E368C01AA368E5
:104EF0009842F2D34FF0FF3010BD000070B50D4660
:104F000009490446164600F05CF82846FFF7E0FF22
:104F1000002806DB864204D0C1B2204600F07CF8AF
:104F2000F3E7204670BD00BFFC810B0010B50446BE
:104F30000068FFF703FB204610BD10B5044600686B
:104F400008B1FFF7FBFA0023C4E90133236010BD69
:104F500038B504460D4600680131FFF7F7FA10B185
:104F6000C4E90005012038BD10B50368044623B12B
:104F700043688B4201D3012010BD2046FFF7E8FFB4
:104F80000028F9D0A368002BF5D122681370F2E74E
:104F900037B50D46114601920446FFF7E5FF019A29
:104FA00028B92046FFF7C9FF204603B030BDA260F4
:104FB0002946206800F05FFF2268A3680021D154D1
:104FC000F2E7002313B5C0E900330446836003739E
:104FD00041B10846019100F0B8FF01990246204610
:104FE000FFF7D6FF204602B010BD70B505460E464D
:104FF00009B9002070BD6AB1846814442146FFF7E6
:10500000B3FF0028F5D02868AB683146184400F09B
:1050100077FFAC600120EDE707B500238DF80410A1
:10502000012201A98DF80530FFF7DFFF03B05DF81D
:1050300004FB10B5134684688A68A41A9C420AD3FC
:10504000006838B1096841B1184400F086FFB0FA31
:1050500080F0400910BD0020FCE70846FAE78268AE
:105060008B689A4202D30022FFF7E3BF002070470B
:10507000054B02221A60054B054A9A600020C3E9DD
:105080000000FFF79FB900BF10E7032004E70320EB
:105090000000FFFF024B1A68024B1A60704700BF06
:1050A000E0E4032014E7032070474174704708B51B
:1050B000007CFFF737F920EAE07008BD08B5007CF6
:1050C000FFF710F920EAE07008BD08B5007CFFF793
:1050D00019F940EAE07008BD08B5007CFFF70AF94D
:1050E00040EAE07008BD007CFFF714B937B5457C95
:1050F00004462DB1207C03B0BDE83040FFF7EAB88C
:10510000007C0191FFF70EF900280199F2DC284696
:1051100003B030BD10B514210446FEF7C0FF204691
:1051200010BD000010B54FF47A73044608461146CE
:105130000022C4E90123044B23600123207463741B
:10514000FFF708F9204610BD247F0B00007C0023E8
:10515000FFF7F0B8007CFFF7F5B84174704770476F
:10516000704708B50021007CFFF714F940EAE070B1
:1051700008BD08B50121007CFFF70CF940EAE0709A
:1051800008BD08B5007CFFF7FDF820EAE07008BD17
:1051900008B5007CFFF7EEF820EAE07008BD13B513
:1051A0000446007C0191FFF7EDF80028019901DC2D
:1051B000607C20B1207CFFF7F5F820EAE07002B0B7
:1051C00010BD007CFFF7F6B810B514210446FEF7B9
:1051D00066FF204610BD000010B54FF47A730446F8
:1051E00008460021C4E90113044B23600123207405
:1051F00063741146FFF7B6F8204610BD547F0B00CC
:1052000010B514220446002100F043FE204610BDD4
:1052100010B50F4C88B003A8FFF7F2FF2178BFF359
:105220005B8F11F001010FD120460191FEF739FF8C
:10523000019948B103AA0748FFF7CEFF2046FEF7C1
:1052400035FF054800F00EFE024808B010BD00BF53
:1052500018E703201CE703205F510B000022406881
:105260001146FFF71BB9002240681146FFF736B917
:10527000002240681146FFF741B940680022FFF75D
:1052800035B94068002281F00101FFF71FB9002302
:1052900040681A461946FFF711B9002340681A46BC
:1052A0001946FFF703B9002240681146FFF7E6B838
:1052B000406800220221FFF7E9B8002340681A463F
:1052C000FFF7D4B8024B04225A60024A1A607047B2
:1052D00030E70320847F0B00014B1860704700BF4C
:1052E000E4E4032008B50B4B43B1FFF791FF0368DB
:1052F0001B699847002801DDAFF30080064B43B1DE
:1053000000F0A2F803681B699847002801DDAFF39D
:10531000008008BD000000000000000008B5FFF795
:10532000E1FFFEF7B7FF014B186008BD40E703201F
:105330000548064A064908B5121A00F09CFD054BBF
:10534000054A1A6008BD00BF00F4032004F40320DE
:10535000B4830B0000F403201E1C279A07B500231A
:1053600000931A466FF07701FFF75EF803B05DF81F
:1053700004FB000007B543880A2B08D0502B0BD143
:10538000094B1B684BB103B05DF804EB1847FFF7FE
:10539000E5FF03B05DF804FB002300931A466FF0AD
:1053A0007701FFF741F8F4E73CE7032010B5124816
:1053B0000021FFF7F3F8114B1A68114B9A42114B79
:1053C0000CBF012200221A7001D0FFF7B1FFFEF7D7
:1053D00059FF044600F066FD0B4B13B12046AFF3B6
:1053E000008000210848FFF739F8BDE81040074861
:1053F0000021FFF70FB800BFD9520B0000F40320C3
:105400001E1C279A38E703200000000075530B008C
:105410007047000038B5044614252A46002100F0E4
:1054200038FD25804025074925812846258200F042
:105430002FF804496060284600F02AF8E060204612
:1054400038BD00BFB87F0B0030B50E4D2978BFF3D3
:105450005B8F11F0010487B011D12846FEF721FEC1
:1054600068B101A8FFF7D6FF01AA21460648FFF759
:1054700059FE2846FEF71AFE044800F0F3FC0248E5
:1054800007B030BD44E7032048E7032011540B0068
:10549000FEF703BE08B5FFF769F8000081F0004190
:1054A00002E000BF83F0004330B54FEA41044FEA09
:1054B000430594EA050F08BF90EA020F1FBF54EAA4
:1054C000000C55EA020C7FEA645C7FEA655C00F040
:1054D000E2804FEA5454D4EB5555B8BF6D420CDD11
:1054E0002C4480EA020281EA030382EA000083EA94
:1054F000010180EA020281EA0303362D88BF30BD34
:1055000011F0004F4FEA01314FF4801C4CEA113189
:1055100002D0404261EB410113F0004F4FEA0333E8
:105520004CEA133302D0524263EB430394EA050F73
:1055300000F0A780A4F10104D5F1200E0DDB02FAE2
:105540000EFC22FA05F2801841F1000103FA0EF276
:10555000801843FA05F359410EE0A5F120050EF13C
:10556000200E012A03FA0EFC28BF4CF0020C43FA6D
:1055700005F3C01851EBE37101F0004507D54FF07A
:10558000000EDCF1000C7EEB00006EEB0101B1F5CA
:10559000801F1BD3B1F5001F0CD349085FEA300010
:1055A0004FEA3C0C04F101044FEA445212F5800F1B
:1055B00080F09A80BCF1004F08BF5FEA500C50F1B8
:1055C000000041EB045141EA050130BD5FEA4C0C9B
:1055D000404141EB0101013C28BFB1F5801FE9D2F8
:1055E00091F0000F04BF01460020B1FA81F308BF1B
:1055F0002033A3F10B03B3F120020CDA0C3208DDE7
:1056000002F1140CC2F10C0201FA0CF021FA02F1C1
:105610000CE002F11402D8BFC2F1200C01FA02F131
:1056200020FA0CFCDCBF41EA0C019040E41AA2BF56
:1056300001EB0451294330BD6FEA04041F3C1CDA1E
:105640000C340EDC04F11404C4F1200220FA04F03E
:1056500001FA02F340EA030021FA04F345EA0301E8
:1056600030BDC4F10C04C4F1200220FA02F001FAAA
:1056700004F340EA0300294630BD21FA04F029462C
:1056800030BD94F0000F83F4801306BF81F48011C5
:105690000134013D4EE77FEA645C18BF7FEA655C38
:1056A00029D094EA050F08BF90EA020F05D054EA0A
:1056B000000C04BF1946104630BD91EA030F1EBF0F
:1056C0000021002030BD5FEA545C05D14000494113
:1056D00028BF41F0004130BD14F580043CBF01F506
:1056E000801130BD01F0004545F0FE4141F47001EC
:1056F0004FF0000030BD7FEA645C1ABF19461046C7
:105700007FEA655C1CBF0B46024650EA013406BFC7
:1057100052EA033591EA030F41F4002130BD00BF86
:1057200090F0000F04BF0021704730B54FF4806443
:1057300004F132044FF000054FF0000150E700BFC4
:1057400090F0000F04BF0021704730B54FF4806423
:1057500004F1320410F0004548BF40424FF0000110
:105760003EE700BF42004FEAE2014FEA31014FEA53
:1057700002701FBF12F07F4393F07F4F81F06051A2
:10578000704732F07F4208BF704793F07F4F04BFED
:1057900041F40021704730B54FF4607401F00045CA
:1057A00021F000411CE700BF50EA010208BF70472A
:1057B00030B54FF000050AE050EA010208BF70471B
:1057C00030B511F0004502D5404261EB41014FF484
:1057D000806404F132045FEA915C3FF4D8AE4FF08C
:1057E00003025FEADC0C18BF03325FEADC0C18BF6F
:1057F000033202EBDC02C2F1200300FA03FC20FAC0
:1058000002F001FA03FE40EA0E0021FA02F114440C
:10581000BDE600BF70B54FF0FF0C4CF4E06C1CEA25
:1058200011541DBF1CEA135594EA0C0F95EA0C0F96
:1058300000F0DEF82C4481EA030621EA4C5123EA09
:105840004C5350EA013518BF52EA033541F4801138
:1058500043F4801338D0A0FB02CE4FF00005E1FBEB
:1058600002E506F00042E0FB03E54FF00006E1FB35
:1058700003569CF0000F18BF4EF0010EA4F1FF0478
:10588000B6F5007F64F5407404D25FEA4E0E6D41B8
:1058900046EB060642EAC62141EA55514FEAC520C9
:1058A00040EA5E504FEACE2EB4F1FD0C88BFBCF545
:1058B000E06F1ED8BEF1004F08BF5FEA500E50F1F6
:1058C000000041EB045170BD06F0004646EA0101BC
:1058D00040EA020081EA0301B4EB5C04C2BFD4EBEE
:1058E0000C0541EA045170BD41F480114FF0000EE7
:1058F000013C00F3AB8014F1360FDEBF002001F055
:10590000004170BDC4F10004203C35DA0C341BDCCE
:1059100004F11404C4F1200500FA05F320FA04F0A0
:1059200001FA05F240EA020001F0004221F00041D4
:1059300010EBD37021FA04F642EB06015EEA430E47
:1059400008BF20EAD37070BDC4F10C04C4F1200577
:1059500000FA04F320FA05F001FA04F240EA02002A
:1059600001F0004110EBD37041F100015EEA430EFB
:1059700008BF20EAD37070BDC4F1200500FA05F21B
:105980004EEA020E20FA04F301FA05F243EA02039A
:1059900021FA04F001F0004121FA04F220EA0200A9
:1059A00000EBD3705EEA430E08BF20EAD37070BDEF
:1059B00094F0000F0FD101F00046400041EB0101CF
:1059C00011F4801F08BF013CF7D041EA060195F0B1
:1059D000000F18BF704703F00046520043EB03036B
:1059E00013F4801F08BF013DF7D043EA0603704758
:1059F00094EA0C0F0CEA135518BF95EA0C0F0CD063
:105A000050EA410618BF52EA4306D1D181EA0301A8
:105A100001F000414FF0000070BD50EA410606BFA2
:105A20001046194652EA430619D094EA0C0F02D1E7
:105A300050EA013613D195EA0C0F05D152EA03362C
:105A40001CBF104619460AD181EA030101F000414A
:105A500041F0FE4141F470014FF0000070BD41F093
:105A6000FE4141F4780170BD70B54FF0FF0C4CF46D
:105A7000E06C1CEA11541DBF1CEA135594EA0C0F8C
:105A800095EA0C0F00F0A7F8A4EB050481EA030ED9
:105A900052EA03354FEA013100F088804FEA0333C0
:105AA0004FF0805545EA131343EA12634FEA02228E
:105AB00045EA111545EA10654FEA00260EF000414F
:105AC0009D4208BF964244F1FD0404F5407402D2A1
:105AD0005B084FEA3202B61A65EB03055B084FEA32
:105AE00032024FF480104FF4002CB6EB020E75EB2F
:105AF000030E22BFB61A754640EA0C005B084FEA57
:105B00003202B6EB020E75EB030E22BFB61A7546D3
:105B100040EA5C005B084FEA3202B6EB020E75EB1E
:105B2000030E22BFB61A754640EA9C005B084FEA96
:105B30003202B6EB020E75EB030E22BFB61A7546A3
:105B400040EADC0055EA060E18D04FEA051545EA92
:105B500016754FEA06164FEAC30343EA52734FEA3B
:105B6000C2025FEA1C1CC0D111F4801F0BD141EAB4
:105B700000014FF000004FF0004CB6E711F4801F19
:105B800004BF01430020B4F1FD0C88BFBCF5E06FF9
:105B90003FF6AFAEB5EB030C04BFB6EB020C5FEA09
:105BA000500C50F1000041EB045170BD0EF0004E5E
:105BB0004EEA113114EB5C04C2BFD4EB0C0541EA90
:105BC000045170BD41F480114FF0000E013C90E68D
:105BD00045EA060E8DE60CEA135594EA0C0F08BF51
:105BE00095EA0C0F3FF43BAF94EA0C0F0AD150EA50
:105BF00001347FF434AF95EA0C0F7FF425AF1046E3
:105C000019462CE795EA0C0F06D152EA03353FF40A
:105C1000FDAE1046194622E750EA410618BF52EA87
:105C200043067FF4C5AE50EA41047FF40DAF52EA5B
:105C300043057FF4EBAE12E74FF0FF3C06E000BFF8
:105C40004FF0010C02E000BF4FF0010C4DF804CD05
:105C50004FEA410C7FEA6C5C4FEA430C18BF7FEAC5
:105C60006C5C1BD001B050EA410C0CBF52EA430CF3
:105C700091EA030F02BF90EA020F0020704710F173
:105C8000000F91EA030F58BF994208BF90422CBF02
:105C9000D8176FEAE37040F0010070474FEA410CFB
:105CA0007FEA6C5C02D150EA013C07D14FEA430C19
:105CB0007FEA6C5CD6D152EA033CD3D05DF8040B8A
:105CC000704700BF8446104662468C4619466346BC
:105CD00000E000BF01B5FFF7B7FF002848BF10F193
:105CE000000F01BD4DF808EDFFF7F4FF0CBF0120D8
:105CF00000205DF808FB00BF4DF808EDFFF7EAFF54
:105D000034BF012000205DF808FB00BF4DF808ED0E
:105D1000FFF7E0FF94BF012000205DF808FB00BF03
:105D20004DF808EDFFF7CEFF94BF012000205DF88D
:105D300008FB00BF4DF808EDFFF7C4FF34BF01209A
:105D400000205DF808FB00BF4A0011D212F50012D6
:105D500011D20DD56FF47873B3EB62520ED44FEAC3
:105D6000C12343F0004343EA505323FA02F0704743
:105D70004FF00000704750EA013002D14FF0FF3081
:105D800070474FF0000070474FEA4102B2F1E04324
:105D900024BFB3F5001CDCF1FE5C0DD901F0004C12
:105DA0004FEAC0024CEA5070B2F1004F40EB830062
:105DB00008BF20F00100704711F0804F21D113F18E
:105DC0003872BCBF01F00040704741F480114FEAC7
:105DD0005252C2F11802C2F1200C10FA0CF320FA50
:105DE00002F018BF40F001004FEAC1234FEAD3236D
:105DF00003FA0CFC40EA0C0023FA02F34FEA4303D7
:105E0000CCE77FEA625307D150EA01331EBF4FF05F
:105E1000FE4040F44000704701F0004040F0FE407A
:105E200040F40000704700BFD0B50C4B002206467E
:105E30000F46FFF7EFFCFFF787FF0446FFF770FC04
:105E4000074B0022FFF7E6FC02460B463046394678
:105E5000FFF728FBFFF778FF2146D0BD0000F03D9B
:105E60000000F041002301461A46184600F0BABE71
:105E7000002100F0ABBE0A44914200F1FF3300D193
:105E8000704710B511F8014B03F8014F9142F9D159
:105E900010BD02440346934200D1704703F8011B32
:105EA000F9E7000038B5104B1D68AB6B0446B3B979
:105EB0001820FEF73BFB0246A86320B90B4B0C48A9
:105EC0004221FEF763FB0B490B4BC0E900130B4B60
:105ED00083600B23838100210120C2E90401AB6BA5
:105EE00000221C615A6138BDE4E40320B97F0B0035
:105EF000D07F0B000E33CDAB34126DE6ECDE050027
:105F0000034611F8012B03F8012B002AF9D1704741
:105F1000024B0146186800F003B800BFE4E4032018
:105F200037B5044608460D4600F00FF8421C1146EE
:105F300020460192FEF722FB044618B1019A294639
:105F4000FFF799FF204603B030BD034613F8012B3D
:105F5000002AFBD1181A0138704710B57AB10346F0
:105F60000139841813F8010B11F8012F904201D167
:105F7000A34201D1801A10BD0028F3D1FAE71046E0
:105F8000F9E770B504460D4645EC104B164601F096
:105F900083FD51EC100B7EB1C5F30A53C3F16B03C3
:105FA000002B09DD1B0503F17F55002405F5401585
:105FB00022462B46FFF72EFC70BD000000000000BB
:105FC0002DE9F04F2DED028B9DB01F460023189355
:105FD000A24B13921B680593044618468846FFF7A8
:105FE000B4FF4FF0000A05464FF0000BCDF85C807F
:105FF000179B1A782B2A4ED03BD80D2A34D8082A62
:1060000034D8002A3ED000230A93179E3378302BD1
:1060100040F0B080737803F0DF03582B68D10A9BFF
:10602000019318AB029700938D4A19AB17A920462C
:1060300000F0A2FE10F00707054605D0062F2CD170
:106040000136002317960A93139B002B40F090858E
:106050000A9BEBB152460BF1004343EC102B1DB0F1
:10606000BDEC028BBDE8F08F202ACCD10133179311
:10607000BEE72D2AC7D101220A925A1C17925B78DB
:10608000002BC2D1139BCDF85C80002B40F06E85B5
:1060900052465B46E1E70022EEE7189A3AB1352115
:1060A0001AA801F004FE1899204601F0C3F9013F37
:1060B000042F06D8DFE807F00A0314170A00DDE909
:1060C0001AAB2807C0D54BF0004BBDE7DDE91AA39A
:1060D000199A23F4801302F2334243EA025BF0E799
:1060E000DFF880B1EDE76FF0004B4FF0FF3AE8E7E3
:1060F000179B5A1C17925B78302BF9D0002BA3D03A
:1061000001234FF000090493179B0893CDF81C90CE
:106110004F460A2217980678A6F13003D9B209290A
:106120002AD905992A46FFF718FF98B3002032466E
:106130003D4605900346652A01D0452A18D11DB970
:10614000049A02439ED00025DDF85C8008F101022C
:10615000179298F801202B2A75D02D2A7BD04FF06A
:10616000000CA2F13001092940F28280CDF85C8058
:1061700000269DE00023C4E7082FD8BF079900F14F
:106180000100DABF02FB0133079302FB0939013733
:106190001790BFE7179B5A1917925A5D002F37D0F7
:1061A00005903D46A2F13003092B12D90123C2E725
:1061B000179B5A1C17925A780130302AF8D0A2F156
:1061C0003103082B00F2D984179B05900020089317
:1061D0000546303A00F1010314D0059919440591A0
:1061E0002B4600EB050E0A21734513D12B18082B03
:1061F00005F1010505441CDC07990A2303FB012373
:1062000007930023179A511C179152781846C9E733
:106210003846D2E7082B04DC079E4E43079601332D
:10622000E2E703F1010CBCF1100FD8BF01FB09F943
:10623000F5E7102DDCBF0A2303FB0929E1E7002362
:10624000059301237CE74FF0000C08F1020217923E
:1062500098F8022085E74FF0010CF6E700820B006A
:1062600038800B000000F07F179A511C179152786C
:10627000302AF9D0A2F1310108293FF679AFA2F115
:10628000300E179A0692179A511C17915278A2F164
:106290003006092E37D9069E891B082944F61F6649
:1062A00002DC7645A8BF7646BCF1000F00D07642EE
:1062B000002D4DD1049901437FF4C6AE002B7FF42D
:1062C000E1AE692A27D024DC492A24D04E2A7FF463
:1062D000D9AE9F4917A800F0A7FF00283FF4D2AE1F
:1062E000179B1B78282B2DD19A491AAA17A800F0C2
:1062F000AFFF052826D11B9BDDF868A043F0FF4BBC
:106300004BF4E00BA0E60A2101FB0E2EAEF1300E9D
:10631000B9E76E2ADBE7904917A800F085FF00284F
:106320003FF4B0AE179B8D49013B17A8179300F0BF
:106330007BFF10B9179B01331793DFF830B24FF092
:10634000000A81E6864801F007FD5BEC10AB7BE6B6
:10635000059B0798F31A002F08BF2F46102D0693B0
:10636000A846A8BF4FF01008FFF7DAF9092D8246BA
:106370008B4613DD7B4B03EBC80353E91223FFF776
:1063800049FA824648468B46FFF7CAF902460B4651
:1063900050465946FFF788F882468B460F2D38DC69
:1063A000069B002B3FF450AE24DD162B0BDC6D4911
:1063B00001EBC301D1E9000152465B46FFF72AFA1F
:1063C00082468B4640E6069AC5F12503934220DBC0
:1063D000644CC5F10F0504EBC50152465B46D1E99B
:1063E0000001FFF717FA069B5D1B04EBC504D4E917
:1063F0000023E3E7069B16330BDB059B9E1B594BE3
:1064000003EBC606D6E9002350465946FFF72CFB9E
:10641000D6E7069BA5EB08089844B8F1000F74DD99
:1064200018F00F030AD04F4901EBC30152465B46F7
:10643000D1E90001FFF7EEF982468B4638F00F08EC
:106440004FD0B8F59A7F22DD00252E460795059599
:106450002223DFF818B123604FF0000A079B002BBE
:106460003FF4F2AD1899204600F0E4FF059920466C
:1064700000F0E0FF3146204600F0DCFF079920469F
:1064800000F0D8FF2946204600F0D4FFDCE5364B6B
:10649000049300234FEA2818504659469946B8F10C
:1064A000010F21DC0BB182468B462F4BABF1547BA5
:1064B00003EBC90952465B46D9E90001FFF7AAF987
:1064C0002A4B0A460B402A498B428246BCD8A1F58A
:1064D00080118B4286BFDFF89CB04FF0FF3A02F18B
:1064E000547B0023049384E018F0010F05D0049B33
:1064F000D3E90023FFF78EF90123049A083209F14A
:1065000001094FEA68080492C9E7EAD0C8F1000817
:1065100018F00F020AD0134B03EBC2035046594642
:10652000D3E90023FFF7A0FA82468B465FEA2818DA
:10653000D7D0B8F11F0F1FDD00252E460795059512
:1065400022234FF0000A4FF0000B236086E700BFC4
:1065500032800B004C800B0029800B002C800B003C
:10656000FC810B0098820B0070820B000000F07F12
:106570000000A07CFFFFEF7F18F0100318BF6A2314
:10658000DFF8AC93049350465946002318F0010FEE
:1065900004D0D9E90023FFF73DF901235FEA680839
:1065A00009F10809F2D10BB182468B46049BC3B1B5
:1065B000CBF30A52C2F16B03002B594611DD1F2B9E
:1065C00040F32481342BDEBFC2F14B024FF0FF3386
:1065D00003FA02F24FF0000ACCBF4FF05C7B02EAF4
:1065E000010B0022002350465946FFF77BFB002891
:1065F000A2D1079B009308992B463A46204600F00B
:1066000081FF079000283FF41FAF059B9E1B069B50
:10661000002BB4BF334600230C93069B002523EACE
:10662000E37312932E46079B2046596800F0C2FE82
:10663000059000283FF40CAF079B1A69023203F162
:106640000C0192000C30FFF716FC4BEC10AB1AAAB1
:1066500019A9204601F09CFA4BEC18AB18900028C1
:106660003FF4F6AE0121204600F0E6FF0646002882
:106670003FF4EEAE199B0499002BABBF0C9A129A13
:10668000129FDDF83090ACBF03EB0209D71A1A9ABB
:10669000A3EB01089044A14B08F1FF389845C2F1E3
:1066A000360280F2C780A3EB08031F2BA2EB030284
:1066B0004FF0010100F3B18001FA03F30D930023C1
:1066C000089309EB0208049BC14517441F444B463D
:1066D000A8BF4346BB42A8BF3B46002BC2BFA8EBA6
:1066E0000308FF1AA9EB03090C9B002B17DD3146A9
:1066F0001A46204601F060F8064600283FF4A8AE8E
:106700000146189A204600F0ADFF0B9000283FF498
:106710009FAE1899204600F08DFE0B9B1893B8F1A0
:10672000000F00F38C80069B002B08DD129A059960
:10673000204601F041F8059000283FF489AE002F73
:1067400008DD05993A46204601F090F805900028AA
:106750003FF47EAEB9F1000F08DD31464A462046CF
:1067600001F084F8064600283FF472AE059A1899A5
:10677000204601F007F9054600283FF469AEC368DA
:106780000B930023C360314601F0E0F8002860DA83
:106790000B9B53EA0A0340F08280CBF31303002BD8
:1067A0007DD12BF000431B0D1B05B3F1D66F76D9BD
:1067B0006B6913B92B69012B71DD29460122204633
:1067C00001F054F83146054601F0C0F8002866DDB6
:1067D0000499534A5B46002900F0818002EA0B01CC
:1067E000B1F1D66F7BDCB1F15C7F7FF7A9AE4D4B89
:1067F000504659460022FFF70DF80B46034308BFE9
:10680000222382468B4608BF23602BE64FF0FF32DF
:1068100002FA03F303EA0A0AE3E6C8F17F4808F53F
:106820007F0808F57B4808F1E20801FA08F30893AD
:106830000D9146E70023089301230D9341E7189932
:106840004246204601F012F8189000287FF46BAF02
:10685000FEE55F466ED10B9ACBF3130342B3324A87
:10686000934228D1049B5146EBB12D4B3B40B3F1F1
:10687000D46F4FF0FF3219D81B0DC3F16B0302FA2E
:1068800003F3994217D1294B9F4202D101313FF4C2
:10689000DFAD234B3B4003F5801B4FF0000A049B08
:1068A000002BA4D1DEE54FF0FF33EAE71346E8E71B
:1068B00053EA0A038CD0089BDBB13B42EFD00B9B21
:1068C000049A50465946C3B1FFF75BFB02460B469C
:1068D00051EC180BFEF7E8FD82468B46DFE71340CC
:1068E000A3F580136FEA135B6FEA0B5B4FF0FF3A7F
:1068F000D5E70D9B13EA0A0FE0E7FFF742FB0246DC
:106900000B4651EC180BFEF7CDFD0022002382460A
:106910008B46FFF7E7F90028C1D011E602FCFFFF24
:106920000000F07F00005039FFFF0F00FFFFEF7FF6
:1069300060800B003146284601F086F959EC108B37
:1069400010EE100A00224FF080434946FFF7DEF9AF
:1069500000287AD00B9B002B4AD0954B0022CDE922
:106960000823DFF84C924FF00008924B3B400D9308
:106970000D9A914B9A4240F0B080DDE90801A7F1F1
:10698000547B4BEC10ABCDE9080101F085F8DDE953
:10699000080153EC102BFEF73DFF52465B46FEF715
:1069A00083FD0B468349854A19409142824660D94E
:1069B00018EE903A02F15472934204D118EE103A54
:1069C00001333FF445ADDFF800B24FF0FF3A1899BC
:1069D000204600F02FFD0599204600F02BFD3146A2
:1069E000204600F027FD2946204600F023FD1AE648
:1069F000BAF1000F1BD1CBF31303F3B96C4B002298
:106A000040464946FFF778F9D0B9404649466C4BB5
:106A10000022FEF7FFFE8046894609F10043CDF8CB
:106A200050801593DDE91423CDE908239DE7BAF1E1
:106A3000010F02D1002F3FF483AD624B00228EE79D
:106A4000DFF87C914FF00008E7E75D4B4046494690
:106A50000022FEF7DFFE0B9B8046894633B901F129
:106A600000430E900F93DDE90E23DDE7CDE90E899B
:106A7000F9E703F1547B049B002BA8D12BF00043D2
:106A80000D9A1B0D1B059A42A1D14046494601F0C3
:106A900079F9FEF791FE02460B4640464946FEF75D
:106AA00001FD0B9ACBF3130343EA0A031343804619
:106AB000894655D036A3D3E90023FFF71DF90028F6
:106AC0007FF4D0AC34A3D3E9002340464946FFF716
:106AD00031F900283FF47BAFC4E4049B33B30D9B32
:106AE000B3F1D46F22D82EA3D3E900234046494600
:106AF000FFF70CF9A0B149464046FFF725F90128F8
:106B000038BF0120FEF70CFE0B9B8046894623BB55
:106B100001F1004310901193DDE91023CDE9082322
:106B2000099B0D9A03F1D6639B1A0993DDE90801CD
:106B3000B0EE480AF0EE680ACDE9080100F0ACFFBB
:106B4000DDE9080153EC102BFEF764FE53EC182B23
:106B5000FEF7AAFC82468B468DE7CDE91089DBE77C
:106B600011A3D3E90023FFF7C7F8B2E700230A9384
:106B7000139A179B1360FFF76BBA652A3FF45FAB5C
:106B8000452A3FF45CAB0123FFF794BBAFF30080D1
:106B90009535A094FFFFDF3F35E5AF350000E03FBE
:106BA0000000C0FFFFFFDF419535A094FFFFCF3FFE
:106BB0000000F03F0000F07F0000E07FFFFF9F7CBF
:106BC0000000E03F0000F0BFFFFFEF7F0A460146F4
:106BD0000248034B0068FFF7F3B900BFE4E4032069
:106BE00050E503202DE9F843DFF8B8800646D8F8D1
:106BF00000001F460D46914600F0C6FB254B1C6861
:106C000034B9254C1C60254B13B11B68C4F888307F
:106C100063681F2B07DDD8F8000000F0B7FB4FF0CA
:106C2000FF30BDE8F8834EB3D4F8880088B91C4B18
:106C300023B9D8F8000000F0A8FBF0E74FF4847007
:106C4000FDF774FC0028F4D00023C0E94033C4F8F9
:106C50008800636840F8239001229A4000EB83018A
:106C6000D0F800311343C0F80031022EC1F8807013
:106C700002BFD0F804311343C0F804316368D8F878
:106C800000005A1C0233626044F8235000F07EFB7F
:106C90000020C6E7E8E703205CE7032000000000CF
:106CA0002D450B0048E503200369B3EB611F2DE977
:106CB000F0434FEA611200F1140445DD11F01F01A9
:106CC00004EB830604EB82050CD100F11007294682
:106CD000B14234D39B1A9B00EA1E964238BF002370
:106CE000234415E054F82270C1F12008CF4005F18B
:106CF000040EA1467645F44615D89A1A9200043A35
:106D00000135AE4238BF0022A318A75007B10433A3
:106D10001A1BA3424FEAA20208BF0023026108BF68
:106D20004361BDE8F083DCF800C00CFA08FC4CEAD3
:106D3000070749F8047B5EF8047BCF40DAE751F897
:106D400004CB47F804CFC3E72346E1E7A0F13003C3
:106D5000092B02D82038C0B27047A0F16103052B7F
:106D600001D84738F7E7A0F14103052B01D82738B0
:106D7000F1E70020704700002DE9F04F2DED028B68
:106D800089B008EE100A0493B44B1B6801931846AF
:106D90008B469046FFF7D9F8019BDBF800200344AF
:106DA000824613F8013C0593931CC2F1FF2202F5C1
:106DB0007F02FE32D1181F4613F8010B00913028D4
:106DC000F8D0FFF7C3FF044600283AD10199524694
:106DD0003846FFF7C2F80546002868D117F80A00C0
:106DE00007EB0A06FFF7B2FF002862D03346187897
:106DF00030281F4603F10103F9D0FFF7A7FF012355
:106E0000B0FA80F46409354600933A4616460132DA
:106E10003078FFF79BFF0028F8D1019952463046A1
:106E2000FFF79BF880B94DB906EB0A052A461646CE
:106E300001323078FFF78AFF0028F8D1AD1BAD0092
:106E400004E000242546E0E7002DF7D1337803F075
:106E5000DF03502B3BD173782B2B2CD02D2B2ED036
:106E6000711C4FF000090878FFF770FF431EDBB27A
:106E7000182B2CD8A0F1100211F8010FFFF766FFB4
:106E8000431EDBB2182B1DD9B9F1000F00D05242BE
:106E90001544CBF80010E4B1009B002B14BF002771
:106EA0000627384609B0BDEC028BBDE8F08F3E46A0
:106EB00025460124CAE74FF00009B11CD3E74FF083
:106EC0000109FAE70A2303FB0202103AD4E731462C
:106ED000DFE7F31B013B2146072B0BDC18EE100A02
:106EE00000F068FA044640B95D4B0246DE215D4879
:106EF000FDF74CFB01315B10EEE700F114094FF098
:106F0000000BCAF10103CDF80890CDF800B006934C
:106F1000B74240D30298009B40F8043BA0EB090025
:106F2000801046012061184600F036FB301AD8F870
:106F30000060B04263DD871B3946204600F0DAFE70
:106F40008246A8B17B1E591103F01F0259F8211087
:106F50004FF0010A0AFA02F20A4209D0534505DD50
:106F6000B91E204600F0C6FE002845D14FF0020AA7
:106F700039462046FFF798FE3D44D8F80830AB422A
:106F80004CDA18EE100A214600F054FA149A002345
:106F90001360A32785E7731E059A039316F8013C37
:106FA000934219D0BBF1200F07D1029B009A43F8FE
:106FB000042B0293002300939B4616F8010CFFF765
:106FC000C5FE009B00F00F0000FA0BF00343009396
:106FD0000BF1040B039B0DE0039B069A1344BB4289
:106FE000E0D31846019907935246FEF7B6FF079B78
:106FF0000028D7D11E468BE74FF0030AB8E70ADA1C
:10700000371A214618EE100A3A4600F02FFCED1B05
:10701000044600F114094FF0000AAEE7D8F8040066
:10702000A84272DD451BAE4236DCD8F80C30022B8C
:107030002AD0032B2CD0012B1CD1AE421AD1012E09
:1070400012D1049AD8F80430136001232361C9F8DF
:107050000030149B62271C6023E700BF00820B00F6
:1070600089810B009A810B00711E204600F042FEC0
:107070000028E6D118EE100A214600F0DBF9149A38
:107080000023136050270CE7159B002BF2D1D8E7A3
:10709000159B002BD5D1EDE76F1EBAF1000F31D152
:1070A00027B13946204600F025FE82467B1101219A
:1070B00059F8233007F01F0701FA07F71F42294646
:1070C000204618BF4AF0020A761BFFF7EDFDD8F8FC
:1070D00004500227BAF1000F48D0D8F80C30022B28
:1070E00015D0032B17D0012B09D11AF0020F06D0AF
:1070F000D9F800004AEA000A1AF0010F0ED147F051
:10710000100733E04FF0010AD0E70127E2E7159BB3
:10711000C3F101031593159B002BF0D0D4F810B0E8
:1071200004F114034FEA8B0A03EB8B014FF0000CC0
:10713000184653F8042BB2F1FF3F1CD00132026015
:10714000022F04F114033FD1D8F80020013AB242D3
:107150000AD17111012253F8213006F01F0602FAFC
:1071600006F61E4218BF174647F02007149B1C6006
:10717000049B1D6095E6994243F804CCD8D8A368D7
:107180009B4519DB616818EE100A013100F012F915
:10719000814618B91A4B02468421A8E622690232B8
:1071A00004F10C0192000C30FEF765FE214618EE4A
:1071B000100A00F03FF94C4623695A1C04EB830384
:1071C000226101225A61BBE722695A450BDD012188
:1071D0002046FFF769FDD8F808300135AB42FFF6CD
:1071E000D0AE0127C0E716F01F06FAD05344C6F10F
:1071F000200653F8040C00F0CFF9B042E7DBF0E7CB
:1072000089810B00C2F10802920070B5C2F120061C
:107210004368046803FA06F52C43D340046040F841
:10722000043F8842F4D370BD30B50368013311F8D0
:10723000014B14B90360012030BD13F8012BA2F1FA
:107240004105192D98BF2032A242F0D00020F3E76B
:107250002DE9F04F0B685E1102EB860613F01F0359
:1072600087B018BF04360025371F90460268019387
:10727000824646F8045CB9463C460295AB465178D6
:10728000531C039341B3084605920491FFF75EFD3A
:1072900000284FD10499059A202918D8029B9B45B4
:1072A00013DD4C4506D2072D04DC2A46494620460C
:1072B000FFF7A8FF444550D90023A4F1040944F87E
:1072C000043CCDF808B04C461D46039AD7E729295F
:1072D00056D10232CAF80020BBF1000F50D04C4505
:1072E00006D2072D04DC2A4649462046FFF78AFFCE
:1072F000444534D9A8F10402234653F8041B42F84C
:10730000041F9F42F9D23B1B23F0030304330134D3
:10731000033EB44288BF04234344002243F8042BB5
:107320009F42FBD23B681BB9474527D101233B60F5
:10733000052026E00135082D0BF1010B06DD444543
:10734000C3D9002344F8043C0125043C226800F022
:107350000F0040EA02122260B7E70825B5E7019B5B
:10736000002BDFD04FF0FF32C3F1200322FA03F3EA
:1073700056F8042C1A4046F8042CD3E7043FD1E712
:10738000042007B0BDE8F08F70477047704782B0A7
:1073900001B901A942B14BB113780B601278101EEC
:1073A00018BF012002B070471046FBE76FF00100E4
:1073B000F8E7000070B5466A04460D4676B910201D
:1073C000FDF7B4F80246606220B9184B18486621F0
:1073D000FDF7DCF8C0E901660660C660666AF3681E
:1073E00083B1636ADB6853F82500B8B9012101FA5B
:1073F00005F6721D9200204600F09DFC60B1C0E9C8
:1074000001560EE021220421204600F094FC636A1C
:10741000F060DB68002BE4D1002070BD026843F807
:1074200025200023C0E90333F7E700BFB97F0B0035
:1074300014820B0070B5466A05460C4676B91020DA
:10744000FDF774F80246686220B9094B09488A21A1
:10745000FDF79CF8C0E901660660C6603CB16B6A46
:107460006268DB6853F82210216043F8224070BD47
:10747000B97F0B0014820B002DE9F0410D6907461E
:107480000C461E4601F1140C0020DCF8003099B2C5
:1074900002FB01611E0C0B0C02FB063389B20130AA
:1074A00001EB034185424CF8041B4FEA1346ECDC28
:1074B0000EB3A368AB4219DC616838460131FFF7AF
:1074C00079FF804628B902460C4B0D48B521FDF7DF
:1074D0005DF82269023204F10C0192000C30FEF7D3
:1074E000CAFC21463846FFF7A5FF444604EB850356
:1074F00001355E6125612046BDE8F08189810B0080
:1075000014820B002DE9F8430C4615461F4609224C
:107510000833064693FBF2F3002101229A4209DB6D
:107520003046FFF747FF40B90246194B1948CE21B4
:10753000FDF72CF852000131F0E7089B4361092D5B
:107540004FF00103036116DD04F10909C8462C441C
:1075500018F8013B0146303B0A223046FFF78CFF0A
:10756000A045F5D1A5F108044C442D1B6319BB427D
:1075700004DBBDE8F8830A340925F6E714F8013B7B
:107580000146303B0A223046FFF776FFEEE700BFA8
:1075900089810B0014820B00030C1B04D3B9000477
:1075A000102310F07F4F04BF0002083310F0704F1B
:1075B00004BF0001043310F0404F04BF80000233C9
:1075C000002805DB10F0804F03F1010308BF2023E2
:1075D000184670470023E4E7036813F007020146EA
:1075E0000BD0DA0723D4980749BF5B089B0801201A
:1075F0000B605CBF0B600220704798B2A8B91B0CEF
:107600001020DAB20AB908301B0A1A0704BF1B0996
:1076100004309A0704BF9B080230DA0703D45B08E2
:1076200000F1010005D00B6070471046E9E700202B
:10763000704720207047000010B50C460121FFF76D
:10764000B9FE024628B9054B05484FF4A071FCF776
:107650009DFF01234461036110BD00BF89810B00C0
:1076600014820B002DE9F04F91460A69D9F81030C9
:107670009A42B8BF0B460C46BCBF4C469946276998
:10768000D9F810A0A368616807EB0A06B34285B079
:10769000B8BF0131FFF78EFE30B90246444B454872
:1076A00040F25D11FCF772FF00F1140505EB86084E
:1076B0002B460022434521D304F1140303EB870733
:1076C00009F1140303EB8A0202923A1B153A22F0E5
:1076D0000302043204F115018F4238BF04220192E3
:1076E000029A03939A420CD8002E03DD58F8043D09
:1076F000002B5AD0066105B0BDE8F08F43F8042B8B
:10770000D8E7B3F800A0BAF1000F24D004F1140EAA
:10771000A9464FF0000C5EF8042BD9F800101FFAB0
:1077200082FB89B20AFB0B114FEA124BD9F80020F9
:1077300061444FEA124C0AFB0BC202EB114289B2C0
:1077400041EA0241774549F8041B4FEA124CE2D85E
:10775000019A45F802C0039AB2F802900433B9F1D5
:10776000000F20D0296804F1140CAE464FF0000A37
:10777000BCF800B0BEF8022009FB0B22924489B28B
:1077800041EA0A414EF8041B5CF8042BBEF80010D5
:10779000120C09FB021101EB1A4167454FEA114A2D
:1077A000E6D8019AA95004359AE7013E9CE700BF4C
:1077B00089810B0014820B002DE9F843154612F065
:1077C000030206460F4607D0254C013A002354F821
:1077D0002220FFF751FE0746AD103DD0746A7CB9F8
:1077E0001020FCF7A3FE0246706228B91D4B1E480C
:1077F0004FF4D771FCF7CAFEC0E901440460C460CD
:10780000D6F82480D8F808404CB940F271213046AF
:10781000FFF712FF0023C8F80800044603604FF08A
:107820000009EB070AD5394622463046FFF71AFF12
:10783000394680463046FFF7FDFD47466D100BD0B8
:10784000206838B9224621463046FFF70BFF2060FA
:10785000C0F800900446E4E73846BDE8F88300BF6E
:1078600060830B00B97F0B0014820B002DE9F047F9
:107870000C464968236903EB6218A36807469146E2
:107880004FEA621A08F10106B3420BDB3846FFF7F4
:1078900091FD054648B902462A4B2B4840F2D911C2
:1078A000FCF774FE01315B00EEE7002300F11401E8
:1078B00000F110021846534537DB20692AEAEA7ABC
:1078C00004F1140319F01F0901EB8A0103EB800096
:1078D0002FD0C9F1200E8A464FF0000C1A6802FA28
:1078E00009F242EA0C024AF8042B53F8042B98429E
:1078F00022FA0EFCF2D8031B153B23F003030433DA
:1079000004F11502904238BF042341F803C0BCF1D2
:10791000000F01D008F10206013E38462E612146D3
:10792000FFF788FD2846BDE8F08742F8040F0133D1
:10793000C1E7043953F8042B41F8042F9842F9D8D1
:10794000EAE700BF89810B0014820B0030B50269A1
:107950000C69121B0ED100F11403143103EB8400E7
:1079600001EB840150F8045D51F8044DA54203D0A9
:1079700005D30122104630BD8342F3D3FAE74FF01E
:10798000FF32F7E72DE9F84F0C4606461146204630
:107990009046FFF7DBFF051E10D129463046FFF762
:1079A00009FD30B93A4B024640F232213948FCF722
:1079B000EDFD0123C0E90435BDE8F88FA4BF4346BF
:1079C000A0463046D8F80410A6BF1C460025012565
:1079D000FFF7F0FC20B92E4B02464FF41071E5E79B
:1079E000D8F810702669C56004F1140908F114056F
:1079F00000F1140E05EB870C09EB860608F1100266
:107A0000F246002159F8043B52F804BF1FFA83F8EC
:107A100011FA8BF11B0CA1EB0808C3EB1B4303EB22
:107A200028431FFA88F819144E4548EA03434AF8D8
:107A3000043BE7D8331B153B23F003030433153411
:107A4000A64238BF04231D4473449E462E46664515
:107A50000ED30CF10302521B22F00302033DAC458E
:107A600038BF00221A4452F8043D7BB10761A3E7F6
:107A700056F8048B11FA88F2141404EB184492B2ED
:107A800042EA04424EF8042B2114E0E7013FEAE702
:107A900089810B0014820B0082B08DED000B019BDD
:107AA00012491940A1F15071002905DD00220B4651
:107AB00043EC102B02B070474942B1F1A07F4FEA6E
:107AC00021504FF000024FF0000304DA4FF4002180
:107AD00041FA00F3ECE7A0F114011E29DABF4FF0E0
:107AE000004020FA01F101210A46E1E70000F07FA1
:107AF000F8B5056900F1140707EB85052E1F55F849
:107B0000044C2046FFF748FDC0F120030A28DFF8A7
:107B10007CC00B6014DCC0F10B0E24FA0EF1B742EE
:107B200041EA0C0334BF55F8081C0021153004FA53
:107B300000F021FA0EF140EA010243EC102BF8BDEF
:107B4000B7423ABF55F8081CA5F1080600210B38CA
:107B500017D0C0F1200C04FA00F5BE4221FA0CF453
:107B600045EA04058CBF56F8044C002445F07F53C9
:107B700001FA00F024FA0CF443F4401340EA040242
:107B8000DBE744EA0C030A46D7E700BF0000F03FFA
:107B90002DE9F7438946012157EC106B9046FFF71A
:107BA00009FC044630B90246254B264840F20A310A
:107BB000FCF7ECFCC7F30A55C7F3130335BB002EE3
:107BC000019328D068460096FFF706FD009900B3A0
:107BD000019AC0F1200302FA03F30B43C240636130
:107BE0000192019BA361002B14BF0222012222619A
:107BF000D5B1A5F233450544C9F80050C0F13500B0
:107C0000C8F80000204603B0BDE8F08343F48013B9
:107C1000D5E76161E5E701A8FFF7DEFC019B636141
:107C2000012222612030E3E704EB8203A0F232401C
:107C3000C9F800001869FFF7AFFCC0EB4210DFE79E
:107C400089810B0014820B002DE9F74F88466946A5
:107C50008146FFF74DFF01A9404655EC104BFFF759
:107C600047FFD9F81030D8F81020A3EB020CDDE95B
:107C700000329B1A03EB4C1351EC100B002BD6BFB8
:107C80000A462A46C3EB03338B462F46D4BF02EB8A
:107C9000035B02EB0357204610EE102A5B46394681
:107CA000FDF7E2FE41EC100B03B0BDE8F08F0139A7
:107CB00070B549111469013102F1140300EB81011F
:107CC00003EB8404051FA3420CD3A31A113B23F03A
:107CD00003031132A24288BF0023184400238842C4
:107CE00005D370BD53F8046B45F8046FEBE740F81B
:107CF000043BF4E700F1140200694B11984210B5FF
:107D000011DB0ADD11F01F0107D052F8234024FADD
:107D100001F000FA01F18C420BD102EB8303934294
:107D200003D8002010BD0346F7E753F8041D0029CF
:107D3000F5D00120F6E713B54A4311460192FCF74E
:107D40001DFC044618B1019A0021FEF7A2F8204656
:107D500002B010BD000000009FED010B704700BF96
:107D6000000000000000F87F49B1FF2A85BF8A2388
:107D700003600A704FF0FF3098BF0120704708463B
:107D80007047000038B50022002304460D46FDF779
:107D9000B3FF28B920462946BDE83840FEF744B86D
:107DA000204605F10041FEF73FF8404261EB4101FA
:107DB00038BD00BF21400B005D400B0085400B002B
:107DC00089400B000000000041636300252A7320F6
:107DD000257320255B5E2C5D202C20252A73202511
:107DE0007320252A7320252A7320257320252A73C2
:107DF00020252A7320257300416363756D756C61BE
:107E0000746564205261696E00416D6F756E7420F7
:107E10006F66207261696E20666F72207468697384
:107E2000206576656E7400546F74616C20616D6FAF
:107E3000756E74206F66207261696E004375727290
:107E4000656E74207261696E20696E74656E736907
:107E500074790000000000000000000021460B00C3
:107E600027460B0065460B0035460B0023460B00EA
:107E70000000000000000000AF4B0B00A54B0B0002
:107E80009B4B0B00914B0B00854B0B00794B0B0070
:107E90000D4D0B00154D0B006D4B0B00654B0B0092
:107EA0005B4B0B00514B0B00454D0B0000000000DD
:107EB00000000000DD4B0B00CD4B0B00CF4B0B0047
:107EC000617070000000000000000000CD4C0B004D
:107ED000D74C0B00E14C0B00EB4C0B00F54C0B00AE
:107EE000014D0B000D4D0B00154D0B001D4D0B00F2
:107EF000294D0B00314D0B003B4D0B00454D0B0048
:107F000025592D256D2D25645425483A254D3A25B2
:107F100053257A0061736374696D65000000000089
:107F200000000000A9500B0015510B00ED500B0094
:107F3000314E0B00BD500B00D9500B00CB500B0045
:107F4000E7500B00AB500B00AF500B0000000000DF
:107F50000000000061510B00C9510B009F510B0044
:107F6000314E0B0091510B0063510B0073510B000C
:107F7000C3510B0083510B005B510B00000000004C
:107F800000000000BB520B00B1520B00A7520B00C7
:107F90005D520B009B520B008F520B000D4D0B00DE
:107FA000154D0B0083520B007B520B0071520B00DE
:107FB00067520B00454D0B00005245454E54206D55
:107FC000616C6C6F632073756363656564656400E1
:107FD0002F746D702F6A656E6B696E732D47434306
:107FE0002D31302D706970656C696E652D34385F88
:107FF00032303230313132345F3136303631383030
:108000003633392F7372632F6E65776C69622F6E0A
:1080100065776C69622F6C6962632F7374646C6935
:10802000622F72616E642E63006E6600696E697401
:108030007900616E0000000035000000CEFBFFFFFC
:10804000CB0300000100000000000000340000002D
:10805000CEFBFFFFCB03000001000000000000008A
:10806000BC89D897B2D29C3C33A7A8D523F649390E
:108070003DA7F444FD0FA5329D978CCF08BA5B2530
:10808000436FAC64280668110020202020202020A7
:1080900020202828282828202020202020202020B8
:1080A00020202020202020202088101010101010C8
:1080B0001010101010101010100404040404040414
:1080C00004040410101010101010414141414141AE
:1080D0000101010101010101010101010101010190
:1080E00001010101101010101010424242424242A0
:1080F0000202020202020202020202020202020260
:108100000202020210101010200000000000000007
:10811000000000000000000000000000000000005F
:10812000000000000000000000000000000000004F
:10813000000000000000000000000000000000003F
:10814000000000000000000000000000000000002F
:10815000000000000000000000000000000000001F
:10816000000000000000000000000000000000000F
:1081700000000000000000000000000000000000FF
:1081800000000000000000000042616C6C6F632082
:10819000737563636565646564002F746D702F6A21
:1081A000656E6B696E732D4743432D31302D7069B9
:1081B00070656C696E652D34385F32303230313124
:1081C00032345F313630363138303633392F7372CE
:1081D000632F6E65776C69622F6E65776C69622FAD
:1081E0006C6962632F7374646C69622F6764746F67
:1081F000612D6765746865782E63002E00000000AD
:10820000FB810B00FC810B004CE503204300504F29
:10821000534958002F746D702F6A656E6B696E73C9
:108220002D4743432D31302D706970656C696E6543
:108230002D34385F32303230313132345F313630C4
:10824000363138303633392F7372632F6E65776C61
:1082500069622F6E65776C69622F6C6962632F7338
:1082600074646C69622F6D707265632E6300000028
:108270000080E03779C34143176E05B5B5B8934622
:10828000F5F93FE9034F384D321D30F94877825AEE
:108290003CBF737FDD4F1575000000000000F03F0C
:1082A00000000000000024400000000000005940D1
:1082B0000000000000408F40000000000088C34024
:1082C00000000000006AF8400000000080842E4199
:1082D00000000000D01263410000000084D79741E5
:1082E0000000000065CDCD41000000205FA00242EB
:1082F000000000E876483742000000A2941A6D4260
:10830000000040E59C30A2420000901EC4BCD64252
:1083100000003426F56B0C430080E03779C34143FD
:1083200000A0D8855734764300C84E676DC1AB4373
:10833000003D9160E458E143408CB5781DAF154491
:1083400050EFE2D6E41A4B4492D54D06CFF080446C
:10835000F64AE1C7022DB544B49DD9794378EA4481
:1083600005000000190000007D0000002D420B00F8
:1083700011460B00B94B0B00BD4C0B001D4E0B0002
:10838000C54E0B0071500B0095500B00C5520B00F1
:10839000040000001400000003000000474E5500D8
:1083A000E6C906C51517B98DA9ABBA30AD0B1FEDDF
:0483B000562BF25105
:0483B40000000000C5
:1083B800147F0B00E8E40320000000000000000028
:1083C80000000000000000000000000000000000A5
:1083D8000000000000000000000000000000000095
:1083E8000000000000000000000000000000000085
:1083F8000000000000000000000000000000000075
:108408000000000000000000000000000000000064
:108418000000000000000000ECE70320FF0000005F
:108428004300000000000000000000000000000001
:108438000000000000000000000000000000000034
:1084480043000000000000000000000000000000E1
:108458000000000000000000000000000000000014
:1084680043000000000000000000000000000000C1
:1084780000000000000000000000000000000000F4
:1084880043000000000000000000000000000000A1
:1084980000000000000000000000000000000000D4
:1084A8004300000000000000000000000000000081
:1084B80000000000000000000000000000000000B4
:1084C8004300000000000000000000000000000061
:1084D8000000000000000000000000000000000094
:1084E8004300000000000000000000000000000041
:1084F8000000000000000000000000000000000074
:10850800697D0B008F730B000000000088800B0052
:10851800FB810B00FC810B00FC810B00FC810B0034
:10852800FC810B00FC810B00FC810B00FC810B0023
:10853800FC810B00FC810B00FFFFFFFFFFFFFFFF2B
:10854800FFFFFFFFFFFF00000100415343494900BF
:108558000000000000000000000000000000000013
:10856800000000000000000000004153434949009A
:1085780000000000000000000000000000000000F3
:0C858800000000000000000000000000E7
:10859400FFFFFFFF00000102030405060708090AA4
:1085A4000B0C0D0E0F101112131415161718191A9F
:0885B4001B1C1D1E1F202800E6
:0485BC0078563412A7
:04000003B0004020E9
:00000001FF
